{
  "contractName": "VendingMachine",
  "abi": [
    {
      "inputs": [
        {
          "internalType": "bytes32",
          "name": "_name",
          "type": "bytes32"
        }
      ],
      "stateMutability": "nonpayable",
      "type": "constructor"
    },
    {
      "anonymous": false,
      "inputs": [
        {
          "indexed": false,
          "internalType": "uint256",
          "name": "_productId",
          "type": "uint256"
        },
        {
          "indexed": false,
          "internalType": "bytes32",
          "name": "_name",
          "type": "bytes32"
        }
      ],
      "name": "NewProduct",
      "type": "event"
    },
    {
      "anonymous": false,
      "inputs": [
        {
          "indexed": false,
          "internalType": "address",
          "name": "_customer",
          "type": "address"
        },
        {
          "indexed": false,
          "internalType": "uint256",
          "name": "_productId",
          "type": "uint256"
        },
        {
          "indexed": false,
          "internalType": "uint256",
          "name": "_quantity",
          "type": "uint256"
        }
      ],
      "name": "NewSale",
      "type": "event"
    },
    {
      "anonymous": false,
      "inputs": [
        {
          "indexed": true,
          "internalType": "address",
          "name": "previousOwner",
          "type": "address"
        },
        {
          "indexed": true,
          "internalType": "address",
          "name": "newOwner",
          "type": "address"
        }
      ],
      "name": "OwnershipTransferred",
      "type": "event"
    },
    {
      "anonymous": false,
      "inputs": [
        {
          "indexed": false,
          "internalType": "address",
          "name": "_customer",
          "type": "address"
        },
        {
          "indexed": false,
          "internalType": "uint256",
          "name": "_quantity",
          "type": "uint256"
        }
      ],
      "name": "Received",
      "type": "event"
    },
    {
      "inputs": [],
      "name": "birthdate",
      "outputs": [
        {
          "internalType": "uint256",
          "name": "",
          "type": "uint256"
        }
      ],
      "stateMutability": "view",
      "type": "function"
    },
    {
      "inputs": [
        {
          "internalType": "address",
          "name": "",
          "type": "address"
        }
      ],
      "name": "customersSalesHistory",
      "outputs": [
        {
          "internalType": "uint256",
          "name": "totalSales",
          "type": "uint256"
        },
        {
          "internalType": "uint256",
          "name": "totalRevenue",
          "type": "uint256"
        }
      ],
      "stateMutability": "view",
      "type": "function"
    },
    {
      "inputs": [],
      "name": "name",
      "outputs": [
        {
          "internalType": "bytes32",
          "name": "",
          "type": "bytes32"
        }
      ],
      "stateMutability": "view",
      "type": "function"
    },
    {
      "inputs": [],
      "name": "owner",
      "outputs": [
        {
          "internalType": "address",
          "name": "",
          "type": "address"
        }
      ],
      "stateMutability": "view",
      "type": "function"
    },
    {
      "inputs": [
        {
          "internalType": "uint256",
          "name": "",
          "type": "uint256"
        }
      ],
      "name": "products",
      "outputs": [
        {
          "internalType": "bytes32",
          "name": "name",
          "type": "bytes32"
        },
        {
          "internalType": "bytes32",
          "name": "description",
          "type": "bytes32"
        },
        {
          "internalType": "bytes32",
          "name": "image",
          "type": "bytes32"
        },
        {
          "internalType": "uint256",
          "name": "price",
          "type": "uint256"
        },
        {
          "internalType": "uint256",
          "name": "quantity",
          "type": "uint256"
        },
        {
          "internalType": "bool",
          "name": "active",
          "type": "bool"
        }
      ],
      "stateMutability": "view",
      "type": "function"
    },
    {
      "inputs": [],
      "name": "renounceOwnership",
      "outputs": [],
      "stateMutability": "nonpayable",
      "type": "function"
    },
    {
      "inputs": [
        {
          "internalType": "uint256",
          "name": "",
          "type": "uint256"
        }
      ],
      "name": "sales",
      "outputs": [
        {
          "internalType": "address",
          "name": "customer",
          "type": "address"
        },
        {
          "internalType": "uint256",
          "name": "productId",
          "type": "uint256"
        },
        {
          "internalType": "uint256",
          "name": "quantity",
          "type": "uint256"
        },
        {
          "internalType": "uint256",
          "name": "price",
          "type": "uint256"
        },
        {
          "internalType": "uint256",
          "name": "date",
          "type": "uint256"
        }
      ],
      "stateMutability": "view",
      "type": "function"
    },
    {
      "inputs": [],
      "name": "topClient",
      "outputs": [
        {
          "internalType": "address",
          "name": "",
          "type": "address"
        }
      ],
      "stateMutability": "view",
      "type": "function"
    },
    {
      "inputs": [],
      "name": "totalProducts",
      "outputs": [
        {
          "internalType": "uint256",
          "name": "",
          "type": "uint256"
        }
      ],
      "stateMutability": "view",
      "type": "function"
    },
    {
      "inputs": [],
      "name": "totalSales",
      "outputs": [
        {
          "internalType": "uint256",
          "name": "",
          "type": "uint256"
        }
      ],
      "stateMutability": "view",
      "type": "function"
    },
    {
      "inputs": [
        {
          "internalType": "address",
          "name": "newOwner",
          "type": "address"
        }
      ],
      "name": "transferOwnership",
      "outputs": [],
      "stateMutability": "nonpayable",
      "type": "function"
    },
    {
      "stateMutability": "payable",
      "type": "receive"
    },
    {
      "inputs": [
        {
          "internalType": "bool",
          "name": "_active",
          "type": "bool"
        }
      ],
      "name": "activateDeactivateContract",
      "outputs": [],
      "stateMutability": "nonpayable",
      "type": "function"
    },
    {
      "inputs": [
        {
          "internalType": "uint256",
          "name": "_weiUnits",
          "type": "uint256"
        }
      ],
      "name": "transferRemainingFunds",
      "outputs": [],
      "stateMutability": "payable",
      "type": "function"
    },
    {
      "inputs": [],
      "name": "getContractBalance",
      "outputs": [
        {
          "internalType": "uint256",
          "name": "",
          "type": "uint256"
        }
      ],
      "stateMutability": "view",
      "type": "function"
    },
    {
      "inputs": [],
      "name": "getActiveProducts",
      "outputs": [
        {
          "internalType": "uint256[]",
          "name": "",
          "type": "uint256[]"
        }
      ],
      "stateMutability": "view",
      "type": "function"
    },
    {
      "inputs": [
        {
          "internalType": "bytes32",
          "name": "_name",
          "type": "bytes32"
        },
        {
          "internalType": "bytes32",
          "name": "_description",
          "type": "bytes32"
        },
        {
          "internalType": "bytes32",
          "name": "_image",
          "type": "bytes32"
        },
        {
          "internalType": "uint256",
          "name": "_quantity",
          "type": "uint256"
        },
        {
          "internalType": "uint256",
          "name": "_price",
          "type": "uint256"
        }
      ],
      "name": "addProduct",
      "outputs": [
        {
          "internalType": "uint256",
          "name": "",
          "type": "uint256"
        }
      ],
      "stateMutability": "nonpayable",
      "type": "function"
    },
    {
      "inputs": [
        {
          "internalType": "uint256",
          "name": "_productId",
          "type": "uint256"
        },
        {
          "internalType": "bytes32",
          "name": "_name",
          "type": "bytes32"
        },
        {
          "internalType": "bytes32",
          "name": "_description",
          "type": "bytes32"
        },
        {
          "internalType": "bytes32",
          "name": "_image",
          "type": "bytes32"
        },
        {
          "internalType": "uint256",
          "name": "_price",
          "type": "uint256"
        }
      ],
      "name": "updateProduct",
      "outputs": [],
      "stateMutability": "nonpayable",
      "type": "function"
    },
    {
      "inputs": [
        {
          "internalType": "uint256",
          "name": "_productId",
          "type": "uint256"
        },
        {
          "internalType": "bool",
          "name": "_active",
          "type": "bool"
        }
      ],
      "name": "activateDeactivateProduct",
      "outputs": [],
      "stateMutability": "nonpayable",
      "type": "function"
    },
    {
      "inputs": [
        {
          "internalType": "uint256",
          "name": "_productId",
          "type": "uint256"
        },
        {
          "internalType": "uint256",
          "name": "_quantity",
          "type": "uint256"
        }
      ],
      "name": "addStock",
      "outputs": [
        {
          "internalType": "uint256",
          "name": "",
          "type": "uint256"
        }
      ],
      "stateMutability": "nonpayable",
      "type": "function"
    },
    {
      "inputs": [
        {
          "internalType": "uint256",
          "name": "_productId",
          "type": "uint256"
        },
        {
          "internalType": "uint256",
          "name": "_quantity",
          "type": "uint256"
        }
      ],
      "name": "removeStock",
      "outputs": [
        {
          "internalType": "uint256",
          "name": "",
          "type": "uint256"
        }
      ],
      "stateMutability": "nonpayable",
      "type": "function"
    },
    {
      "inputs": [
        {
          "internalType": "uint256",
          "name": "_productId",
          "type": "uint256"
        },
        {
          "internalType": "uint256",
          "name": "_quantity",
          "type": "uint256"
        }
      ],
      "name": "buyProduct",
      "outputs": [],
      "stateMutability": "payable",
      "type": "function"
    },
    {
      "inputs": [],
      "name": "getMachineAgeInSeconds",
      "outputs": [
        {
          "internalType": "uint256",
          "name": "",
          "type": "uint256"
        }
      ],
      "stateMutability": "view",
      "type": "function"
    },
    {
      "inputs": [
        {
          "internalType": "uint256",
          "name": "_max",
          "type": "uint256"
        }
      ],
      "name": "getLastCustomers",
      "outputs": [
        {
          "internalType": "address[]",
          "name": "",
          "type": "address[]"
        }
      ],
      "stateMutability": "view",
      "type": "function"
    },
    {
      "inputs": [
        {
          "internalType": "address",
          "name": "_customer",
          "type": "address"
        }
      ],
      "name": "getSalesHistory",
      "outputs": [
        {
          "internalType": "uint256[]",
          "name": "",
          "type": "uint256[]"
        }
      ],
      "stateMutability": "view",
      "type": "function"
    },
    {
      "inputs": [
        {
          "internalType": "address",
          "name": "_customer",
          "type": "address"
        }
      ],
      "name": "getSalesHistoryByProducts",
      "outputs": [
        {
          "internalType": "uint256[]",
          "name": "",
          "type": "uint256[]"
        }
      ],
      "stateMutability": "view",
      "type": "function"
    }
  ],
  "bytecode": "0x60806040523480156200001157600080fd5b506040516200340538038062003405833981810160405260208110156200003757600080fd5b810190808051906020019092919050505060006200005a6200012860201b60201c565b9050806000806101000a81548173ffffffffffffffffffffffffffffffffffffffff021916908373ffffffffffffffffffffffffffffffffffffffff1602179055508073ffffffffffffffffffffffffffffffffffffffff16600073ffffffffffffffffffffffffffffffffffffffff167f8be0079c531659141344cd1fd0a4f28419497f9722a3daafe3b4186f6b6457e060405160405180910390a35042600181905550806002819055506001600360006101000a81548160ff0219169083151502179055505062000130565b600033905090565b6132c580620001406000396000f3fe60806040526004361061016a5760003560e01c80636605ff66116100d15780639b9d326d1161008a578063b5f522f711610064578063b5f522f7146108c1578063ca0f46c014610942578063d4ae6c20146109ae578063f2fde38b14610a0757610248565b80639b9d326d146107f45780639b9e03ba1461081f578063b55b40041461089657610248565b80636605ff66146106795780636f9fb98a146106a4578063715018a6146106cf5780637acc0b20146106e65780637edd19a21461075a5780638da5cb5b146107b357610248565b806321bbf14c1161012357806321bbf14c146104fe5780632f125ce41461053b578063317f3059146105a75780634f72b54b146105d557806353b62866146106005780635be1c54a1461063857610248565b806306fdde031461024d578063091fdb53146102785780630cf253c5146102bf5780630db97d0c1461034f5780630fbb7fb0146103f55780631054b3021461045857610248565b3661024857600360009054906101000a900460ff166101f1576040517f08c379a00000000000000000000000000000000000000000000000000000000081526004018080602001828103825260148152602001807f436f6e747261637420697320696e61637469766500000000000000000000000081525060200191505060405180910390fd5b7f88a5966d370b9919b20f3e2c13ff65706f196a4e32cc2c12bf57088f885258743334604051808373ffffffffffffffffffffffffffffffffffffffff1681526020018281526020019250505060405180910390a1005b600080fd5b34801561025957600080fd5b50610262610a58565b6040518082815260200191505060405180910390f35b34801561028457600080fd5b506102bd6004803603604081101561029b57600080fd5b8101908080359060200190929190803515159060200190929190505050610a5e565b005b3480156102cb57600080fd5b506102f8600480360360208110156102e257600080fd5b8101908080359060200190929190505050610bda565b6040518080602001828103825283818151815260200191508051906020019060200280838360005b8381101561033b578082015181840152602081019050610320565b505050509050019250505060405180910390f35b34801561035b57600080fd5b5061039e6004803603602081101561037257600080fd5b81019080803573ffffffffffffffffffffffffffffffffffffffff169060200190929190505050610df1565b6040518080602001828103825283818151815260200191508051906020019060200280838360005b838110156103e15780820151818401526020810190506103c6565b505050509050019250505060405180910390f35b34801561040157600080fd5b50610456600480360360a081101561041857600080fd5b810190808035906020019092919080359060200190929190803590602001909291908035906020019092919080359060200190929190505050610ffa565b005b34801561046457600080fd5b506104a76004803603602081101561047b57600080fd5b81019080803573ffffffffffffffffffffffffffffffffffffffff169060200190929190505050611369565b6040518080602001828103825283818151815260200191508051906020019060200280838360005b838110156104ea5780820151818401526020810190506104cf565b505050509050019250505060405180910390f35b34801561050a57600080fd5b506105396004803603602081101561052157600080fd5b8101908080351515906020019092919050505061155c565b005b34801561054757600080fd5b5061058a6004803603602081101561055e57600080fd5b81019080803573ffffffffffffffffffffffffffffffffffffffff169060200190929190505050611641565b604051808381526020018281526020019250505060405180910390f35b6105d3600480360360208110156105bd57600080fd5b8101908080359060200190929190505050611665565b005b3480156105e157600080fd5b506105ea61181a565b6040518082815260200191505060405180910390f35b6106366004803603604081101561061657600080fd5b810190808035906020019092919080359060200190929190505050611820565b005b34801561064457600080fd5b5061064d611bb5565b604051808273ffffffffffffffffffffffffffffffffffffffff16815260200191505060405180910390f35b34801561068557600080fd5b5061068e611bdb565b6040518082815260200191505060405180910390f35b3480156106b057600080fd5b506106b9611be1565b6040518082815260200191505060405180910390f35b3480156106db57600080fd5b506106e4611be9565b005b3480156106f257600080fd5b5061071f6004803603602081101561070957600080fd5b8101908080359060200190929190505050611d6f565b604051808781526020018681526020018581526020018481526020018381526020018215158152602001965050505050505060405180910390f35b34801561076657600080fd5b5061079d6004803603604081101561077d57600080fd5b810190808035906020019092919080359060200190929190505050611db8565b6040518082815260200191505060405180910390f35b3480156107bf57600080fd5b506107c8611ffe565b604051808273ffffffffffffffffffffffffffffffffffffffff16815260200191505060405180910390f35b34801561080057600080fd5b50610809612027565b6040518082815260200191505060405180910390f35b34801561082b57600080fd5b50610880600480360360a081101561084257600080fd5b81019080803590602001909291908035906020019092919080359060200190929190803590602001909291908035906020019092919050505061202d565b6040518082815260200191505060405180910390f35b3480156108a257600080fd5b506108ab61234e565b6040518082815260200191505060405180910390f35b3480156108cd57600080fd5b506108fa600480360360208110156108e457600080fd5b8101908080359060200190929190505050612405565b604051808673ffffffffffffffffffffffffffffffffffffffff1681526020018581526020018481526020018381526020018281526020019550505050505060405180910390f35b34801561094e57600080fd5b5061095761245b565b6040518080602001828103825283818151815260200191508051906020019060200280838360005b8381101561099a57808201518184015260208101905061097f565b505050509050019250505060405180910390f35b3480156109ba57600080fd5b506109f1600480360360408110156109d157600080fd5b8101908080359060200190929190803590602001909291905050506125c7565b6040518082815260200191505060405180910390f35b348015610a1357600080fd5b50610a5660048036036020811015610a2a57600080fd5b81019080803573ffffffffffffffffffffffffffffffffffffffff16906020019092919050505061280d565b005b60025481565b610a66612a18565b73ffffffffffffffffffffffffffffffffffffffff1660008054906101000a900473ffffffffffffffffffffffffffffffffffffffff1673ffffffffffffffffffffffffffffffffffffffff1614610b26576040517f08c379a00000000000000000000000000000000000000000000000000000000081526004018080602001828103825260208152602001807f4f776e61626c653a2063616c6c6572206973206e6f7420746865206f776e657281525060200191505060405180910390fd5b600360009054906101000a900460ff16610ba8576040517f08c379a00000000000000000000000000000000000000000000000000000000081526004018080602001828103825260148152602001807f436f6e747261637420697320696e61637469766500000000000000000000000081525060200191505060405180910390fd5b806004600084815260200190815260200160002060050160006101000a81548160ff0219169083151502179055505050565b6060600360009054906101000a900460ff16610c5e576040517f08c379a00000000000000000000000000000000000000000000000000000000081526004018080602001828103825260148152602001807f436f6e747261637420697320696e61637469766500000000000000000000000081525060200191505060405180910390fd5b816007541015610c6e5760075491505b60608267ffffffffffffffff81118015610c8757600080fd5b50604051908082528060200260200182016040528015610cb65781602001602082028036833780820191505090505b5090506000600190505b838111610de757610ccf6131c1565b600660008381526020019081526020016000206040518060a00160405290816000820160009054906101000a900473ffffffffffffffffffffffffffffffffffffffff1673ffffffffffffffffffffffffffffffffffffffff1673ffffffffffffffffffffffffffffffffffffffff1681526020016001820154815260200160028201548152602001600382015481526020016004820154815250509050806000015183610d87600185612a2090919063ffffffff16565b81518110610d9157fe5b602002602001019073ffffffffffffffffffffffffffffffffffffffff16908173ffffffffffffffffffffffffffffffffffffffff168152505050610de0600182612a6a90919063ffffffff16565b9050610cc0565b5080915050919050565b6060600360009054906101000a900460ff16610e75576040517f08c379a00000000000000000000000000000000000000000000000000000000081526004018080602001828103825260148152602001807f436f6e747261637420697320696e61637469766500000000000000000000000081525060200191505060405180910390fd5b6000600860008473ffffffffffffffffffffffffffffffffffffffff1673ffffffffffffffffffffffffffffffffffffffff16815260200190815260200160002060000154905060608167ffffffffffffffff81118015610ed557600080fd5b50604051908082528060200260200182016040528015610f045781602001602082028036833780820191505090505b509050600080600190505b6007548111610fee578573ffffffffffffffffffffffffffffffffffffffff166006600083815260200190815260200160002060000160009054906101000a900473ffffffffffffffffffffffffffffffffffffffff1673ffffffffffffffffffffffffffffffffffffffff16148015610f8857508382105b15610fd3576006600082815260200190815260200160002060010154838381518110610fb057fe5b602002602001018181525050610fd0600183612a6a90919063ffffffff16565b91505b610fe7600182612a6a90919063ffffffff16565b9050610f0f565b50819350505050919050565b611002612a18565b73ffffffffffffffffffffffffffffffffffffffff1660008054906101000a900473ffffffffffffffffffffffffffffffffffffffff1673ffffffffffffffffffffffffffffffffffffffff16146110c2576040517f08c379a00000000000000000000000000000000000000000000000000000000081526004018080602001828103825260208152602001807f4f776e61626c653a2063616c6c6572206973206e6f7420746865206f776e657281525060200191505060405180910390fd5b600360009054906101000a900460ff16611144576040517f08c379a00000000000000000000000000000000000000000000000000000000081526004018080602001828103825260148152602001807f436f6e747261637420697320696e61637469766500000000000000000000000081525060200191505060405180910390fd5b604051602001808060200182810382526000815260200160200191505060405160208183030381529060405280519060200120600460008781526020019081526020016000206000015460405160200180828152602001915050604051602081830303815290604052805190602001201415611228576040517f08c379a00000000000000000000000000000000000000000000000000000000081526004018080602001828103825260168152602001807f50726f6475637420646f6573206e6f742065786973740000000000000000000081525060200191505060405180910390fd5b60405160200180806020018281038252600081526020016020019150506040516020818303038152906040528051906020012084604051602001808281526020019150506040516020818303038152906040528051906020012014156112f6576040517f08c379a00000000000000000000000000000000000000000000000000000000081526004018080602001828103825260148152602001807f4e616d65206d75737420626520646566696e656400000000000000000000000081525060200191505060405180910390fd5b8360046000878152602001908152602001600020600001819055508260046000878152602001908152602001600020600101819055508160046000878152602001908152602001600020600201819055508060046000878152602001908152602001600020600301819055505050505050565b6060600360009054906101000a900460ff166113ed576040517f08c379a00000000000000000000000000000000000000000000000000000000081526004018080602001828103825260148152602001807f436f6e747261637420697320696e61637469766500000000000000000000000081525060200191505060405180910390fd5b6000600860008473ffffffffffffffffffffffffffffffffffffffff1673ffffffffffffffffffffffffffffffffffffffff16815260200190815260200160002060000154905060608167ffffffffffffffff8111801561144d57600080fd5b5060405190808252806020026020018201604052801561147c5781602001602082028036833780820191505090505b509050600080600190505b6007548111611550578573ffffffffffffffffffffffffffffffffffffffff166006600083815260200190815260200160002060000160009054906101000a900473ffffffffffffffffffffffffffffffffffffffff1673ffffffffffffffffffffffffffffffffffffffff1614801561150057508382105b15611535578083838151811061151257fe5b602002602001018181525050611532600183612a6a90919063ffffffff16565b91505b611549600182612a6a90919063ffffffff16565b9050611487565b50819350505050919050565b611564612a18565b73ffffffffffffffffffffffffffffffffffffffff1660008054906101000a900473ffffffffffffffffffffffffffffffffffffffff1673ffffffffffffffffffffffffffffffffffffffff1614611624576040517f08c379a00000000000000000000000000000000000000000000000000000000081526004018080602001828103825260208152602001807f4f776e61626c653a2063616c6c6572206973206e6f7420746865206f776e657281525060200191505060405180910390fd5b80600360006101000a81548160ff02191690831515021790555050565b60086020528060005260406000206000915090508060000154908060010154905082565b61166d612a18565b73ffffffffffffffffffffffffffffffffffffffff1660008054906101000a900473ffffffffffffffffffffffffffffffffffffffff1673ffffffffffffffffffffffffffffffffffffffff161461172d576040517f08c379a00000000000000000000000000000000000000000000000000000000081526004018080602001828103825260208152602001807f4f776e61626c653a2063616c6c6572206973206e6f7420746865206f776e657281525060200191505060405180910390fd5b6000611737611ffe565b905060008173ffffffffffffffffffffffffffffffffffffffff168360405180600001905060006040518083038185875af1925050503d8060008114611799576040519150601f19603f3d011682016040523d82523d6000602084013e61179e565b606091505b5050905080611815576040517f08c379a00000000000000000000000000000000000000000000000000000000081526004018080602001828103825260118152602001807f5472616e73666572206572726f72203a2800000000000000000000000000000081525060200191505060405180910390fd5b505050565b60015481565b816004600082815260200190815260200160002060050160009054906101000a900460ff166118b7576040517f08c379a00000000000000000000000000000000000000000000000000000000081526004018080602001828103825260138152602001807f50726f6475637420697320696e6163746976650000000000000000000000000081525060200191505060405180910390fd5b600360009054906101000a900460ff16611939576040517f08c379a00000000000000000000000000000000000000000000000000000000081526004018080602001828103825260148152602001807f436f6e747261637420697320696e61637469766500000000000000000000000081525060200191505060405180910390fd5b6000611964836004600087815260200190815260200160002060040154612a2090919063ffffffff16565b10156119d8576040517f08c379a00000000000000000000000000000000000000000000000000000000081526004018080602001828103825260108152602001807f4e6f7420656e6f7567682073746f636b0000000000000000000000000000000081525060200191505060405180910390fd5b611a01600460008581526020019081526020016000206003015483612af290919063ffffffff16565b3414611a58576040517f08c379a000000000000000000000000000000000000000000000000000000000815260040180806020018281038252604281526020018061324e6042913960600191505060405180910390fd5b611a81826004600086815260200190815260200160002060040154612a2090919063ffffffff16565b6004600085815260200190815260200160002060040181905550611abd3384846004600088815260200190815260200160002060030154612b78565b611ac633612e7c565b6000611ad0611ffe565b905060008173ffffffffffffffffffffffffffffffffffffffff163460405180600001905060006040518083038185875af1925050503d8060008114611b32576040519150601f19603f3d011682016040523d82523d6000602084013e611b37565b606091505b5050905080611bae576040517f08c379a00000000000000000000000000000000000000000000000000000000081526004018080602001828103825260108152602001807f5472616e73666572206572726f7221210000000000000000000000000000000081525060200191505060405180910390fd5b5050505050565b600960009054906101000a900473ffffffffffffffffffffffffffffffffffffffff1681565b60075481565b600047905090565b611bf1612a18565b73ffffffffffffffffffffffffffffffffffffffff1660008054906101000a900473ffffffffffffffffffffffffffffffffffffffff1673ffffffffffffffffffffffffffffffffffffffff1614611cb1576040517f08c379a00000000000000000000000000000000000000000000000000000000081526004018080602001828103825260208152602001807f4f776e61626c653a2063616c6c6572206973206e6f7420746865206f776e657281525060200191505060405180910390fd5b600073ffffffffffffffffffffffffffffffffffffffff1660008054906101000a900473ffffffffffffffffffffffffffffffffffffffff1673ffffffffffffffffffffffffffffffffffffffff167f8be0079c531659141344cd1fd0a4f28419497f9722a3daafe3b4186f6b6457e060405160405180910390a360008060006101000a81548173ffffffffffffffffffffffffffffffffffffffff021916908373ffffffffffffffffffffffffffffffffffffffff160217905550565b60046020528060005260406000206000915090508060000154908060010154908060020154908060030154908060040154908060050160009054906101000a900460ff16905086565b6000611dc2612a18565b73ffffffffffffffffffffffffffffffffffffffff1660008054906101000a900473ffffffffffffffffffffffffffffffffffffffff1673ffffffffffffffffffffffffffffffffffffffff1614611e82576040517f08c379a00000000000000000000000000000000000000000000000000000000081526004018080602001828103825260208152602001807f4f776e61626c653a2063616c6c6572206973206e6f7420746865206f776e657281525060200191505060405180910390fd5b600360009054906101000a900460ff16611f04576040517f08c379a00000000000000000000000000000000000000000000000000000000081526004018080602001828103825260148152602001807f436f6e747261637420697320696e61637469766500000000000000000000000081525060200191505060405180910390fd5b826004600082815260200190815260200160002060050160009054906101000a900460ff16611f9b576040517f08c379a00000000000000000000000000000000000000000000000000000000081526004018080602001828103825260138152602001807f50726f6475637420697320696e6163746976650000000000000000000000000081525060200191505060405180910390fd5b611fc4836004600087815260200190815260200160002060040154612a6a90919063ffffffff16565b6004600086815260200190815260200160002060040181905550600460008581526020019081526020016000206004015491505092915050565b60008060009054906101000a900473ffffffffffffffffffffffffffffffffffffffff16905090565b60055481565b6000612037612a18565b73ffffffffffffffffffffffffffffffffffffffff1660008054906101000a900473ffffffffffffffffffffffffffffffffffffffff1673ffffffffffffffffffffffffffffffffffffffff16146120f7576040517f08c379a00000000000000000000000000000000000000000000000000000000081526004018080602001828103825260208152602001807f4f776e61626c653a2063616c6c6572206973206e6f7420746865206f776e657281525060200191505060405180910390fd5b600360009054906101000a900460ff16612179576040517f08c379a00000000000000000000000000000000000000000000000000000000081526004018080602001828103825260148152602001807f436f6e747261637420697320696e61637469766500000000000000000000000081525060200191505060405180910390fd5b6040516020018080602001828103825260008152602001602001915050604051602081830303815290604052805190602001208660405160200180828152602001915050604051602081830303815290604052805190602001201415612247576040517f08c379a00000000000000000000000000000000000000000000000000000000081526004018080602001828103825260148152602001807f4e616d65206d75737420626520646566696e656400000000000000000000000081525060200191505060405180910390fd5b61225d6001600554612a6a90919063ffffffff16565b600581905550600060055490506040518060c001604052808881526020018781526020018681526020018481526020018581526020016001151581525060046000838152602001908152602001600020600082015181600001556020820151816001015560408201518160020155606082015181600301556080820151816004015560a08201518160050160006101000a81548160ff0219169083151502179055509050507f0d3f2c3295ad954301ada15bc0c0f049d13bb2892b10c1ba30ee70e332a587ef8188604051808381526020018281526020019250505060405180910390a18091505095945050505050565b6000600360009054906101000a900460ff166123d2576040517f08c379a00000000000000000000000000000000000000000000000000000000081526004018080602001828103825260148152602001807f436f6e747261637420697320696e61637469766500000000000000000000000081525060200191505060405180910390fd5b60004290506123ff60016123f160015484612a2090919063ffffffff16565b612ff190919063ffffffff16565b91505090565b60066020528060005260406000206000915090508060000160009054906101000a900473ffffffffffffffffffffffffffffffffffffffff16908060010154908060020154908060030154908060040154905085565b6060600360009054906101000a900460ff166124df576040517f08c379a00000000000000000000000000000000000000000000000000000000081526004018080602001828103825260148152602001807f436f6e747261637420697320696e61637469766500000000000000000000000081525060200191505060405180910390fd5b606060055467ffffffffffffffff811180156124fa57600080fd5b506040519080825280602002602001820160405280156125295781602001602082028036833780820191505090505b509050600080600190505b60055481116125be576004600082815260200190815260200160002060050160009054906101000a900460ff16801561256e575060055482105b156125a3578083838151811061258057fe5b6020026020010181815250506125a0600183612a6a90919063ffffffff16565b91505b6125b7600182612a6a90919063ffffffff16565b9050612534565b50819250505090565b60006125d1612a18565b73ffffffffffffffffffffffffffffffffffffffff1660008054906101000a900473ffffffffffffffffffffffffffffffffffffffff1673ffffffffffffffffffffffffffffffffffffffff1614612691576040517f08c379a00000000000000000000000000000000000000000000000000000000081526004018080602001828103825260208152602001807f4f776e61626c653a2063616c6c6572206973206e6f7420746865206f776e657281525060200191505060405180910390fd5b600360009054906101000a900460ff16612713576040517f08c379a00000000000000000000000000000000000000000000000000000000081526004018080602001828103825260148152602001807f436f6e747261637420697320696e61637469766500000000000000000000000081525060200191505060405180910390fd5b826004600082815260200190815260200160002060050160009054906101000a900460ff166127aa576040517f08c379a00000000000000000000000000000000000000000000000000000000081526004018080602001828103825260138152602001807f50726f6475637420697320696e6163746976650000000000000000000000000081525060200191505060405180910390fd5b6127d3836004600087815260200190815260200160002060040154612a2090919063ffffffff16565b6004600086815260200190815260200160002060040181905550600460008581526020019081526020016000206004015491505092915050565b612815612a18565b73ffffffffffffffffffffffffffffffffffffffff1660008054906101000a900473ffffffffffffffffffffffffffffffffffffffff1673ffffffffffffffffffffffffffffffffffffffff16146128d5576040517f08c379a00000000000000000000000000000000000000000000000000000000081526004018080602001828103825260208152602001807f4f776e61626c653a2063616c6c6572206973206e6f7420746865206f776e657281525060200191505060405180910390fd5b600073ffffffffffffffffffffffffffffffffffffffff168173ffffffffffffffffffffffffffffffffffffffff16141561295b576040517f08c379a00000000000000000000000000000000000000000000000000000000081526004018080602001828103825260268152602001806132076026913960400191505060405180910390fd5b8073ffffffffffffffffffffffffffffffffffffffff1660008054906101000a900473ffffffffffffffffffffffffffffffffffffffff1673ffffffffffffffffffffffffffffffffffffffff167f8be0079c531659141344cd1fd0a4f28419497f9722a3daafe3b4186f6b6457e060405160405180910390a3806000806101000a81548173ffffffffffffffffffffffffffffffffffffffff021916908373ffffffffffffffffffffffffffffffffffffffff16021790555050565b600033905090565b6000612a6283836040518060400160405280601e81526020017f536166654d6174683a207375627472616374696f6e206f766572666c6f77000081525061303b565b905092915050565b600080828401905083811015612ae8576040517f08c379a000000000000000000000000000000000000000000000000000000000815260040180806020018281038252601b8152602001807f536166654d6174683a206164646974696f6e206f766572666c6f77000000000081525060200191505060405180910390fd5b8091505092915050565b600080831415612b055760009050612b72565b6000828402905082848281612b1657fe5b0414612b6d576040517f08c379a000000000000000000000000000000000000000000000000000000000815260040180806020018281038252602181526020018061322d6021913960400191505060405180910390fd5b809150505b92915050565b600360009054906101000a900460ff16612bfa576040517f08c379a00000000000000000000000000000000000000000000000000000000081526004018080602001828103825260148152602001807f436f6e747261637420697320696e61637469766500000000000000000000000081525060200191505060405180910390fd5b6007600081548092919060010191905055506040518060a001604052808573ffffffffffffffffffffffffffffffffffffffff1681526020018481526020018381526020018281526020014281525060066000600754815260200190815260200160002060008201518160000160006101000a81548173ffffffffffffffffffffffffffffffffffffffff021916908373ffffffffffffffffffffffffffffffffffffffff16021790555060208201518160010155604082015181600201556060820151816003015560808201518160040155905050612d266001600860008773ffffffffffffffffffffffffffffffffffffffff1673ffffffffffffffffffffffffffffffffffffffff16815260200190815260200160002060000154612a6a90919063ffffffff16565b600860008673ffffffffffffffffffffffffffffffffffffffff1673ffffffffffffffffffffffffffffffffffffffff16815260200190815260200160002060000181905550612dd3612d828284612af290919063ffffffff16565b600860008773ffffffffffffffffffffffffffffffffffffffff1673ffffffffffffffffffffffffffffffffffffffff16815260200190815260200160002060010154612a6a90919063ffffffff16565b600860008673ffffffffffffffffffffffffffffffffffffffff1673ffffffffffffffffffffffffffffffffffffffff168152602001908152602001600020600101819055507fa3ed4207b1480804a4590a74f4b9cc310dc0fc839af8d10e2141ca3b72fd9348848484604051808473ffffffffffffffffffffffffffffffffffffffff168152602001838152602001828152602001935050505060405180910390a150505050565b600360009054906101000a900460ff16612efe576040517f08c379a00000000000000000000000000000000000000000000000000000000081526004018080602001828103825260148152602001807f436f6e747261637420697320696e61637469766500000000000000000000000081525060200191505060405180910390fd5b60086000600960009054906101000a900473ffffffffffffffffffffffffffffffffffffffff1673ffffffffffffffffffffffffffffffffffffffff1673ffffffffffffffffffffffffffffffffffffffff16815260200190815260200160002060010154600860008373ffffffffffffffffffffffffffffffffffffffff1673ffffffffffffffffffffffffffffffffffffffff168152602001908152602001600020600101541115612fee5780600960006101000a81548173ffffffffffffffffffffffffffffffffffffffff021916908373ffffffffffffffffffffffffffffffffffffffff1602179055505b50565b600061303383836040518060400160405280601a81526020017f536166654d6174683a206469766973696f6e206279207a65726f0000000000008152506130fb565b905092915050565b60008383111582906130e8576040517f08c379a00000000000000000000000000000000000000000000000000000000081526004018080602001828103825283818151815260200191508051906020019080838360005b838110156130ad578082015181840152602081019050613092565b50505050905090810190601f1680156130da5780820380516001836020036101000a031916815260200191505b509250505060405180910390fd5b5060008385039050809150509392505050565b600080831182906131a7576040517f08c379a00000000000000000000000000000000000000000000000000000000081526004018080602001828103825283818151815260200191508051906020019080838360005b8381101561316c578082015181840152602081019050613151565b50505050905090810190601f1680156131995780820380516001836020036101000a031916815260200191505b509250505060405180910390fd5b5060008385816131b357fe5b049050809150509392505050565b6040518060a00160405280600073ffffffffffffffffffffffffffffffffffffffff16815260200160008152602001600081526020016000815260200160008152509056fe4f776e61626c653a206e6577206f776e657220697320746865207a65726f2061646472657373536166654d6174683a206d756c7469706c69636174696f6e206f766572666c6f77596f75206d7573742073656e642074686520657861637420616d6f756e74206f66206574686572206e656564656420746f2062757920746869732070726f64756374a26469706673582212204ff206b08cd386760b6061c29f62ca7cdcd9430b1a21ecd71ca9454a404cd7ba64736f6c63430007050033",
  "immutableReferences": {},
  "source": "// SPDX-License-Identifier: GPL-3.0\r\npragma solidity 0.7.5;\r\n\r\nimport \"@openzeppelin/contracts/access/Ownable.sol\";\r\nimport \"@openzeppelin/contracts/math/SafeMath.sol\";\r\n\r\ncontract VendingMachine is Ownable\r\n{\r\n\tusing SafeMath for uint256;\r\n\tuint256 public birthdate;\r\n\tbytes32 public name;\r\n\tbool private active;\r\n\r\n\tstruct Product {\r\n\t\tbytes32 name;\r\n\t\tbytes32 description;\r\n\t\tbytes32 image;\r\n\t\tuint256 price;\r\n\t\tuint256 quantity;\r\n\t\tbool active;\r\n\t}\r\n\r\n\tstruct Sale {\r\n\t\taddress customer;\r\n\t\tuint256 productId;\r\n\t\tuint256 quantity;\r\n\t\tuint256 price;\r\n\t\tuint256 date;\r\n\t}\r\n\r\n\tstruct CustomerSalesHistory {\r\n\t\tuint256 totalSales;\r\n\t\tuint256 totalRevenue;\r\n\t}\r\n\r\n\tmapping (uint256 => Product) public products;\r\n\tuint256 public totalProducts;\r\n\tmapping (uint256 => Sale) public sales;\r\n\tuint256 public totalSales;\r\n\tmapping (address => CustomerSalesHistory) public customersSalesHistory;\r\n\taddress public topClient;\r\n\r\n\t/*\r\n\t*\tProduct must be active\r\n\t*/\r\n\tmodifier isActiveProduct(uint256 _productId) {\r\n\t\trequire(products[_productId].active, 'Product is inactive');\r\n\t\t_;\r\n\t}\r\n\r\n\t/*\r\n\t*\tContract must be active in order to work :)\r\n\t*/\r\n\tmodifier contractMustBeActive() {\r\n\t\trequire(active, 'Contract is inactive');\r\n\t\t_;\r\n\t}\r\n\r\n\tevent Received(address _customer, uint256 _quantity);\r\n\tevent NewProduct(uint256 _productId, bytes32 _name);\r\n\tevent NewSale(address _customer, uint256 _productId, uint256 _quantity);\r\n\t\r\n\t/*\r\n\t*\tSet vending machine basic data\r\n\t*/\r\n\tconstructor(bytes32 _name) {\r\n\t\tbirthdate = block.timestamp;\r\n\t\tname = _name;\r\n\t\tactive = true;\r\n\t}\r\n\r\n\t/*\r\n\t* Activate/Deactivate contract functionality\r\n\t*/\r\n\tfunction activateDeactivateContract(bool _active) external onlyOwner {\r\n\t\tactive = _active;\r\n\t}\r\n\r\n\r\n\t/*\r\n\t* Send any remaining funds in contract to owner\r\n\t*/\r\n\tfunction transferRemainingFunds(uint256 _weiUnits) external payable onlyOwner {\r\n\t\taddress payable beneficiary = payable(owner());\r\n\t\t(bool success, ) = beneficiary.call{value: _weiUnits}('');\r\n\t\trequire(success, 'Transfer error :(');\r\n\t}\r\n\r\n\t/*\r\n\t* Get contract's balance\r\n\t*/\r\n\tfunction getContractBalance() external view returns(uint256) {\r\n\t\treturn address(this).balance;\r\n\t}\r\n\r\n\t/*\r\n\t* Fallback function\r\n\t*/\r\n\treceive() external payable contractMustBeActive {\r\n\t\temit Received(msg.sender, msg.value);\r\n\t}\r\n\r\n\t/*\r\n\t* Return list of active products\r\n\t*/\r\n\tfunction getActiveProducts() \r\n\t\texternal view contractMustBeActive\r\n\t\treturns(uint256[] memory)\r\n\t{\r\n\t\tuint256[] memory prods = new uint256[](totalProducts);\r\n\t\tuint256 counter = 0;\r\n\r\n\t\tfor (uint256 i = 1; i <= totalProducts; i = i.add(1)) {\r\n\t\t\tif (products[i].active && counter < totalProducts) {\r\n\t\t\t\tprods[counter] = i;\r\n\t\t\t\tcounter = counter.add(1);\r\n\t\t\t}\r\n\t\t}\r\n\r\n\t\treturn prods;\r\n\t}\r\n\r\n\t/*\r\n\t*\tAdd new product to contract's products list\r\n\t*/\r\n\tfunction addProduct(\r\n\t\tbytes32 _name,\r\n\t\tbytes32 _description,\r\n\t\tbytes32 _image,\r\n\t\tuint256 _quantity,\r\n\t\tuint256 _price\r\n\t)\r\n\t\texternal \r\n\t\tonlyOwner contractMustBeActive\r\n\t\treturns (uint256)\r\n\t{\r\n\t\trequire(\r\n\t\t\tkeccak256(abi.encode(_name)) != keccak256(abi.encode('')),\r\n\t\t\t'Name must be defined'\r\n\t\t);\r\n\t\t// Increase total products\r\n\t\ttotalProducts = totalProducts.add(1);\r\n\r\n\t\t// First id must be one :)\r\n\t\tuint256 productId = totalProducts;\r\n\t\tproducts[productId] = Product(\r\n\t\t\t_name,\r\n\t\t\t_description,\r\n\t\t\t_image,\r\n\t\t\t_price,\r\n\t\t\t_quantity,\r\n\t\t\ttrue\r\n\t\t);\r\n\t\temit NewProduct(productId, _name);\r\n\t\treturn productId;\r\n\t}\r\n\r\n\t/*\r\n\t*\tUpdate product info\r\n\t*/\r\n\tfunction updateProduct(\r\n\t\tuint256 _productId,\r\n\t\tbytes32 _name,\r\n\t\tbytes32 _description,\r\n\t\tbytes32 _image,\r\n\t\tuint256 _price\r\n\t)\r\n\t\texternal\r\n\t\tonlyOwner contractMustBeActive\r\n\t{\r\n\t\trequire(\r\n\t\t\tkeccak256(abi.encode(products[_productId].name)) != keccak256(abi.encode('')),\r\n\t\t\t'Product does not exist'\r\n\t\t);\r\n\t\trequire(\r\n\t\t\tkeccak256(abi.encode(_name)) != keccak256(abi.encode('')),\r\n\t\t\t'Name must be defined'\r\n\t\t);\r\n\t\tproducts[_productId].name = _name;\r\n\t\tproducts[_productId].description = _description;\r\n\t\tproducts[_productId].image = _image;\r\n\t\tproducts[_productId].price = _price;\r\n\t}\r\n\r\n\t/*\r\n\t*\tActivate/deactive product\r\n\t*\tOnly activated products are selled\r\n\t*/\r\n\tfunction activateDeactivateProduct(\r\n\t\tuint256 _productId,\r\n\t\tbool _active\r\n\t)\r\n\t\texternal\r\n\t\tonlyOwner contractMustBeActive\r\n\t{\r\n\t\tproducts[_productId].active = _active;\r\n\t}\r\n\r\n\t/*\r\n\t*\tAdd stock to a product\r\n\t*/\r\n\tfunction addStock(\r\n\t\tuint256 _productId,\r\n\t\tuint256 _quantity\r\n\t) \r\n\t\texternal \r\n\t\tonlyOwner contractMustBeActive\r\n\t\tisActiveProduct(_productId)\r\n\t\treturns (uint256)\r\n\t{\r\n\t\tproducts[_productId].quantity = products[_productId].quantity.add(\r\n\t\t\t_quantity\r\n\t\t);\r\n\r\n\t\treturn products[_productId].quantity;\r\n\t}\r\n\r\n\t/*\r\n\t*\tRemove stock from a product\r\n\t*/\r\n\tfunction removeStock(\r\n\t\tuint256 _productId,\r\n\t\tuint256 _quantity\r\n\t) \r\n\t\texternal \r\n\t\tonlyOwner contractMustBeActive\r\n\t\tisActiveProduct(_productId)\r\n\t\treturns (uint256)\r\n\t{\r\n\t\tproducts[_productId].quantity = products[_productId].quantity.sub(\r\n\t\t\t_quantity\r\n\t\t);\r\n\r\n\t\treturn products[_productId].quantity;\r\n\t}\r\n\r\n\t/*\r\n\t*\tSave sales info history in contract's storage\r\n\t*/\r\n\tfunction _addSale(\r\n\t\taddress _customer,\r\n\t\tuint256 _productId,\r\n\t\tuint256 _quantity,\r\n\t\tuint256 _price\r\n\t) \r\n\t\tcontractMustBeActive\r\n\t\tprivate \r\n\t{\r\n\r\n\t\ttotalSales++;\r\n\t\tsales[totalSales] = Sale(_customer, _productId, _quantity, _price, block.timestamp);\r\n\t\tcustomersSalesHistory[_customer].totalSales = customersSalesHistory[_customer].totalSales.add(1);\r\n\t\tcustomersSalesHistory[_customer].totalRevenue = customersSalesHistory[_customer].totalRevenue.add(\r\n\t\t\t_quantity.mul(_price)\r\n\t\t);\r\n\t\t\r\n\t\temit NewSale(_customer, _productId, _quantity);\r\n\t}\r\n\r\n\t/*\r\n\t*\tSet customer as new top client if he's total revenue\r\n\t* is greater than current top client\r\n\t*/\r\n\tfunction _setNewTopClient(address _customer) \r\n\t\tprivate contractMustBeActive\r\n\t{\r\n\t\tif (customersSalesHistory[_customer].totalRevenue \r\n\t\t\t  > customersSalesHistory[topClient].totalRevenue) {\r\n\t\t\ttopClient = _customer;\r\n\t\t}\r\n\t}\r\n\r\n\t/*\r\n\t*\tBuy a product from machine\r\n\t*/\r\n\tfunction buyProduct(uint256 _productId, uint256 _quantity) \r\n\t\texternal\r\n\t\tpayable\r\n\t\tisActiveProduct(_productId) contractMustBeActive\r\n\t{\r\n\t\trequire(products[_productId].quantity.sub(_quantity) >= 0, 'Not enough stock');\r\n\t\trequire(\r\n\t\t\tmsg.value == (_quantity.mul(products[_productId].price)),\r\n\t\t\t\"You must send the exact amount of ether needed to buy this product\"\r\n\t\t);\r\n\t\t// Remove _quantity from inventory\r\n\t\tproducts[_productId].quantity = products[_productId].quantity.sub(\r\n\t\t\t_quantity\r\n\t\t);\r\n\t\t// Save the sale info\r\n\t\t_addSale(msg.sender, _productId, _quantity, products[_productId].price);\r\n\t\t// Set new top client \r\n\t\t_setNewTopClient(msg.sender);\r\n\t\t// Send payment to owner\r\n\t\taddress payable beneficiary = payable(owner());\r\n\t\t(bool success, ) = beneficiary.call{value: msg.value}(\"\");\r\n\t\trequire(success, \"Transfer error!!\");\r\n\r\n\t}\r\n\r\n\t\r\n\r\n\t/*\r\n\t*\tGet machine's age in seconds\r\n\t*/\r\n\tfunction getMachineAgeInSeconds() \r\n\t\texternal view \r\n\t\tcontractMustBeActive \r\n\t\treturns(uint256) \r\n\t{\r\n\t\tuint256 timeInSeconds = block.timestamp;\r\n\t\treturn timeInSeconds.sub(birthdate).div(1 seconds);\r\n\t} \r\n\t\r\n\t/*\r\n\t*\tGet the list of the last _max customers\r\n\t*/\r\n\tfunction getLastCustomers(uint256 _max) \r\n\t\texternal view \r\n\t\tcontractMustBeActive\r\n\t\treturns(address[] memory)\r\n\t{\r\n\t\tif (totalSales < _max) {\r\n\t\t\t_max = totalSales;\r\n\t\t}\r\n\t\taddress[] memory lastCustomers = new address[](_max);\r\n\r\n\t\tfor (uint256 i = 1; i <= _max; i = i.add(1)) {\r\n\t\t\tSale memory s = sales[i];\r\n\t\t\tlastCustomers[i.sub(1)] = s.customer;\r\n\t\t}\r\n\r\n\t\treturn lastCustomers;\r\n\t}\r\n\r\n\t/*\r\n\t*\tGet client's sales history\r\n\t*/\r\n\tfunction getSalesHistory(address _customer) \r\n\t\texternal view \r\n\t\tcontractMustBeActive\r\n\t\treturns(uint256[] memory) \r\n\t{\r\n\t\tuint256 totalClientSales = customersSalesHistory[_customer].totalSales;\r\n\t\tuint256[] memory clientSales = new uint[](totalClientSales);\r\n\t\tuint256 counter = 0;\r\n\r\n\t\tfor (uint256 i = 1; i <= totalSales; i = i.add(1)) {\r\n\t\t\tif (sales[i].customer == _customer && counter < totalClientSales) {\r\n\t\t\t\tclientSales[counter] = i;\r\n\t\t\t\tcounter = counter.add(1);\r\n\t\t\t}\r\n\t\t}\r\n\r\n\t\treturn clientSales;\r\n\t}\r\n\r\n\t/*\r\n\t*\tGet products bought by the customer\r\n\t*/\r\n\tfunction getSalesHistoryByProducts(address _customer) \r\n\t\texternal view \r\n\t\tcontractMustBeActive\r\n\t\treturns(uint256[] memory) \r\n\t{\r\n\t\tuint256 totalClientSales = customersSalesHistory[_customer].totalSales;\r\n\t\tuint256[] memory clientProducts = new uint[](totalClientSales);\r\n\t\tuint256 counter = 0;\r\n\r\n\t\tfor (uint256 i = 1; i <= totalSales; i = i.add(1)) {\r\n\t\t\tif (sales[i].customer == _customer && counter < totalClientSales) {\r\n\t\t\t\tclientProducts[counter] = sales[i].productId;\r\n\t\t\t\tcounter = counter.add(1);\r\n\t\t\t}\r\n\t\t}\r\n\r\n\t\treturn clientProducts;\r\n\t}\r\n\r\n}",
  "sourcePath": "C:/xampp/htdocs/vending-machine/contracts/VendingMachine.sol",
  "compiler": {
    "name": "solc",
    "version": "0.7.5+commit.eb77ed08.Emscripten.clang"
  },
  "schemaVersion": "3.3.1",
  "updatedAt": "2020-12-03T00:08:56.326Z",
  "devdoc": {
    "kind": "dev",
    "methods": {
      "owner()": {
        "details": "Returns the address of the current owner."
      },
      "renounceOwnership()": {
        "details": "Leaves the contract without owner. It will not be possible to call `onlyOwner` functions anymore. Can only be called by the current owner. NOTE: Renouncing ownership will leave the contract without an owner, thereby removing any functionality that is only available to the owner."
      },
      "transferOwnership(address)": {
        "details": "Transfers ownership of the contract to a new account (`newOwner`). Can only be called by the current owner."
      }
    },
    "version": 1
  },
  "userdoc": {
    "kind": "user",
    "methods": {},
    "version": 1
  }
}