{
  "contractName": "VendingMachine",
  "abi": [
    {
      "inputs": [
        {
          "internalType": "bytes32",
          "name": "_name",
          "type": "bytes32"
        }
      ],
      "stateMutability": "nonpayable",
      "type": "constructor"
    },
    {
      "anonymous": false,
      "inputs": [
        {
          "indexed": false,
          "internalType": "uint256",
          "name": "_productId",
          "type": "uint256"
        },
        {
          "indexed": false,
          "internalType": "bytes32",
          "name": "_name",
          "type": "bytes32"
        }
      ],
      "name": "NewProduct",
      "type": "event"
    },
    {
      "anonymous": false,
      "inputs": [
        {
          "indexed": false,
          "internalType": "address",
          "name": "_customer",
          "type": "address"
        },
        {
          "indexed": false,
          "internalType": "uint256",
          "name": "_productId",
          "type": "uint256"
        },
        {
          "indexed": false,
          "internalType": "uint256",
          "name": "_quantity",
          "type": "uint256"
        }
      ],
      "name": "NewSale",
      "type": "event"
    },
    {
      "anonymous": false,
      "inputs": [
        {
          "indexed": true,
          "internalType": "address",
          "name": "previousOwner",
          "type": "address"
        },
        {
          "indexed": true,
          "internalType": "address",
          "name": "newOwner",
          "type": "address"
        }
      ],
      "name": "OwnershipTransferred",
      "type": "event"
    },
    {
      "anonymous": false,
      "inputs": [
        {
          "indexed": false,
          "internalType": "address",
          "name": "_customer",
          "type": "address"
        },
        {
          "indexed": false,
          "internalType": "uint256",
          "name": "_quantity",
          "type": "uint256"
        }
      ],
      "name": "Received",
      "type": "event"
    },
    {
      "inputs": [],
      "name": "birthdate",
      "outputs": [
        {
          "internalType": "uint256",
          "name": "",
          "type": "uint256"
        }
      ],
      "stateMutability": "view",
      "type": "function",
      "constant": true
    },
    {
      "inputs": [
        {
          "internalType": "address",
          "name": "",
          "type": "address"
        }
      ],
      "name": "customersSalesHistory",
      "outputs": [
        {
          "internalType": "uint256",
          "name": "totalSales",
          "type": "uint256"
        },
        {
          "internalType": "uint256",
          "name": "totalRevenue",
          "type": "uint256"
        }
      ],
      "stateMutability": "view",
      "type": "function",
      "constant": true
    },
    {
      "inputs": [],
      "name": "name",
      "outputs": [
        {
          "internalType": "bytes32",
          "name": "",
          "type": "bytes32"
        }
      ],
      "stateMutability": "view",
      "type": "function",
      "constant": true
    },
    {
      "inputs": [],
      "name": "owner",
      "outputs": [
        {
          "internalType": "address",
          "name": "",
          "type": "address"
        }
      ],
      "stateMutability": "view",
      "type": "function",
      "constant": true
    },
    {
      "inputs": [
        {
          "internalType": "uint256",
          "name": "",
          "type": "uint256"
        }
      ],
      "name": "products",
      "outputs": [
        {
          "internalType": "bytes32",
          "name": "name",
          "type": "bytes32"
        },
        {
          "internalType": "bytes32",
          "name": "description",
          "type": "bytes32"
        },
        {
          "internalType": "bytes32",
          "name": "image",
          "type": "bytes32"
        },
        {
          "internalType": "uint256",
          "name": "price",
          "type": "uint256"
        },
        {
          "internalType": "uint256",
          "name": "quantity",
          "type": "uint256"
        },
        {
          "internalType": "bool",
          "name": "active",
          "type": "bool"
        }
      ],
      "stateMutability": "view",
      "type": "function",
      "constant": true
    },
    {
      "inputs": [],
      "name": "renounceOwnership",
      "outputs": [],
      "stateMutability": "nonpayable",
      "type": "function"
    },
    {
      "inputs": [
        {
          "internalType": "uint256",
          "name": "",
          "type": "uint256"
        }
      ],
      "name": "sales",
      "outputs": [
        {
          "internalType": "address",
          "name": "customer",
          "type": "address"
        },
        {
          "internalType": "uint256",
          "name": "productId",
          "type": "uint256"
        },
        {
          "internalType": "uint256",
          "name": "quantity",
          "type": "uint256"
        },
        {
          "internalType": "uint256",
          "name": "price",
          "type": "uint256"
        },
        {
          "internalType": "uint256",
          "name": "date",
          "type": "uint256"
        }
      ],
      "stateMutability": "view",
      "type": "function",
      "constant": true
    },
    {
      "inputs": [],
      "name": "topClient",
      "outputs": [
        {
          "internalType": "address",
          "name": "",
          "type": "address"
        }
      ],
      "stateMutability": "view",
      "type": "function",
      "constant": true
    },
    {
      "inputs": [],
      "name": "totalProducts",
      "outputs": [
        {
          "internalType": "uint256",
          "name": "",
          "type": "uint256"
        }
      ],
      "stateMutability": "view",
      "type": "function",
      "constant": true
    },
    {
      "inputs": [],
      "name": "totalSales",
      "outputs": [
        {
          "internalType": "uint256",
          "name": "",
          "type": "uint256"
        }
      ],
      "stateMutability": "view",
      "type": "function",
      "constant": true
    },
    {
      "inputs": [
        {
          "internalType": "address",
          "name": "newOwner",
          "type": "address"
        }
      ],
      "name": "transferOwnership",
      "outputs": [],
      "stateMutability": "nonpayable",
      "type": "function"
    },
    {
      "stateMutability": "payable",
      "type": "receive",
      "payable": true
    },
    {
      "inputs": [
        {
          "internalType": "bool",
          "name": "_active",
          "type": "bool"
        }
      ],
      "name": "activateDeactivateContract",
      "outputs": [],
      "stateMutability": "nonpayable",
      "type": "function"
    },
    {
      "inputs": [
        {
          "internalType": "uint256",
          "name": "_weiUnits",
          "type": "uint256"
        }
      ],
      "name": "transferRemainingFunds",
      "outputs": [],
      "stateMutability": "payable",
      "type": "function",
      "payable": true
    },
    {
      "inputs": [],
      "name": "getContractBalance",
      "outputs": [
        {
          "internalType": "uint256",
          "name": "",
          "type": "uint256"
        }
      ],
      "stateMutability": "view",
      "type": "function",
      "constant": true
    },
    {
      "inputs": [],
      "name": "getActiveProducts",
      "outputs": [
        {
          "internalType": "uint256[]",
          "name": "",
          "type": "uint256[]"
        }
      ],
      "stateMutability": "view",
      "type": "function",
      "constant": true
    },
    {
      "inputs": [
        {
          "internalType": "bytes32",
          "name": "_name",
          "type": "bytes32"
        },
        {
          "internalType": "bytes32",
          "name": "_description",
          "type": "bytes32"
        },
        {
          "internalType": "bytes32",
          "name": "_image",
          "type": "bytes32"
        },
        {
          "internalType": "uint256",
          "name": "_quantity",
          "type": "uint256"
        },
        {
          "internalType": "uint256",
          "name": "_price",
          "type": "uint256"
        }
      ],
      "name": "addProduct",
      "outputs": [
        {
          "internalType": "uint256",
          "name": "",
          "type": "uint256"
        }
      ],
      "stateMutability": "nonpayable",
      "type": "function"
    },
    {
      "inputs": [
        {
          "internalType": "uint256",
          "name": "_productId",
          "type": "uint256"
        },
        {
          "internalType": "bytes32",
          "name": "_name",
          "type": "bytes32"
        },
        {
          "internalType": "bytes32",
          "name": "_description",
          "type": "bytes32"
        },
        {
          "internalType": "bytes32",
          "name": "_image",
          "type": "bytes32"
        },
        {
          "internalType": "uint256",
          "name": "_price",
          "type": "uint256"
        }
      ],
      "name": "updateProduct",
      "outputs": [],
      "stateMutability": "nonpayable",
      "type": "function"
    },
    {
      "inputs": [
        {
          "internalType": "uint256",
          "name": "_productId",
          "type": "uint256"
        },
        {
          "internalType": "bool",
          "name": "_active",
          "type": "bool"
        }
      ],
      "name": "activateDeactivateProduct",
      "outputs": [],
      "stateMutability": "nonpayable",
      "type": "function"
    },
    {
      "inputs": [
        {
          "internalType": "uint256",
          "name": "_productId",
          "type": "uint256"
        },
        {
          "internalType": "uint256",
          "name": "_quantity",
          "type": "uint256"
        }
      ],
      "name": "addStock",
      "outputs": [
        {
          "internalType": "uint256",
          "name": "",
          "type": "uint256"
        }
      ],
      "stateMutability": "nonpayable",
      "type": "function"
    },
    {
      "inputs": [
        {
          "internalType": "uint256",
          "name": "_productId",
          "type": "uint256"
        },
        {
          "internalType": "uint256",
          "name": "_quantity",
          "type": "uint256"
        }
      ],
      "name": "removeStock",
      "outputs": [
        {
          "internalType": "uint256",
          "name": "",
          "type": "uint256"
        }
      ],
      "stateMutability": "nonpayable",
      "type": "function"
    },
    {
      "inputs": [
        {
          "internalType": "uint256",
          "name": "_productId",
          "type": "uint256"
        },
        {
          "internalType": "uint256",
          "name": "_quantity",
          "type": "uint256"
        }
      ],
      "name": "buyProduct",
      "outputs": [],
      "stateMutability": "payable",
      "type": "function",
      "payable": true
    },
    {
      "inputs": [
        {
          "internalType": "uint256",
          "name": "_max",
          "type": "uint256"
        }
      ],
      "name": "getLastCustomers",
      "outputs": [
        {
          "internalType": "address[]",
          "name": "",
          "type": "address[]"
        }
      ],
      "stateMutability": "view",
      "type": "function",
      "constant": true
    },
    {
      "inputs": [
        {
          "internalType": "address",
          "name": "_customer",
          "type": "address"
        }
      ],
      "name": "getSalesHistory",
      "outputs": [
        {
          "internalType": "uint256[]",
          "name": "",
          "type": "uint256[]"
        }
      ],
      "stateMutability": "view",
      "type": "function",
      "constant": true
    },
    {
      "inputs": [
        {
          "internalType": "address",
          "name": "_customer",
          "type": "address"
        }
      ],
      "name": "getSalesHistoryByProducts",
      "outputs": [
        {
          "internalType": "uint256[]",
          "name": "",
          "type": "uint256[]"
        }
      ],
      "stateMutability": "view",
      "type": "function",
      "constant": true
    }
  ],
  "bytecode": "0x60806040523480156200001157600080fd5b506040516200327138038062003271833981810160405260208110156200003757600080fd5b810190808051906020019092919050505060006200005a6200012860201b60201c565b9050806000806101000a81548173ffffffffffffffffffffffffffffffffffffffff021916908373ffffffffffffffffffffffffffffffffffffffff1602179055508073ffffffffffffffffffffffffffffffffffffffff16600073ffffffffffffffffffffffffffffffffffffffff167f8be0079c531659141344cd1fd0a4f28419497f9722a3daafe3b4186f6b6457e060405160405180910390a35042600181905550806002819055506001600360006101000a81548160ff0219169083151502179055505062000130565b600033905090565b61313180620001406000396000f3fe60806040526004361061014f5760003560e01c80636605ff66116100b65780639b9d326d1161006f5780639b9d326d146107d95780639b9e03ba14610804578063b5f522f71461087b578063ca0f46c0146108fc578063d4ae6c2014610968578063f2fde38b146109c15761022d565b80636605ff661461065e5780636f9fb98a14610689578063715018a6146106b45780637acc0b20146106cb5780637edd19a21461073f5780638da5cb5b146107985761022d565b806321bbf14c1161010857806321bbf14c146104e35780632f125ce414610520578063317f30591461058c5780634f72b54b146105ba57806353b62866146105e55780635be1c54a1461061d5761022d565b806306fdde0314610232578063091fdb531461025d5780630cf253c5146102a45780630db97d0c146103345780630fbb7fb0146103da5780631054b3021461043d5761022d565b3661022d57600360009054906101000a900460ff166101d6576040517f08c379a00000000000000000000000000000000000000000000000000000000081526004018080602001828103825260148152602001807f436f6e747261637420697320696e61637469766500000000000000000000000081525060200191505060405180910390fd5b7f88a5966d370b9919b20f3e2c13ff65706f196a4e32cc2c12bf57088f885258743334604051808373ffffffffffffffffffffffffffffffffffffffff1681526020018281526020019250505060405180910390a1005b600080fd5b34801561023e57600080fd5b50610247610a12565b6040518082815260200191505060405180910390f35b34801561026957600080fd5b506102a26004803603604081101561028057600080fd5b8101908080359060200190929190803515159060200190929190505050610a18565b005b3480156102b057600080fd5b506102dd600480360360208110156102c757600080fd5b8101908080359060200190929190505050610b94565b6040518080602001828103825283818151815260200191508051906020019060200280838360005b83811015610320578082015181840152602081019050610305565b505050509050019250505060405180910390f35b34801561034057600080fd5b506103836004803603602081101561035757600080fd5b81019080803573ffffffffffffffffffffffffffffffffffffffff169060200190929190505050610d8e565b6040518080602001828103825283818151815260200191508051906020019060200280838360005b838110156103c65780820151818401526020810190506103ab565b505050509050019250505060405180910390f35b3480156103e657600080fd5b5061043b600480360360a08110156103fd57600080fd5b810190808035906020019092919080359060200190929190803590602001909291908035906020019092919080359060200190929190505050610f97565b005b34801561044957600080fd5b5061048c6004803603602081101561046057600080fd5b81019080803573ffffffffffffffffffffffffffffffffffffffff169060200190929190505050611306565b6040518080602001828103825283818151815260200191508051906020019060200280838360005b838110156104cf5780820151818401526020810190506104b4565b505050509050019250505060405180910390f35b3480156104ef57600080fd5b5061051e6004803603602081101561050657600080fd5b810190808035151590602001909291905050506114f9565b005b34801561052c57600080fd5b5061056f6004803603602081101561054357600080fd5b81019080803573ffffffffffffffffffffffffffffffffffffffff1690602001909291905050506115de565b604051808381526020018281526020019250505060405180910390f35b6105b8600480360360208110156105a257600080fd5b8101908080359060200190929190505050611602565b005b3480156105c657600080fd5b506105cf6117b7565b6040518082815260200191505060405180910390f35b61061b600480360360408110156105fb57600080fd5b8101908080359060200190929190803590602001909291905050506117bd565b005b34801561062957600080fd5b50610632611b52565b604051808273ffffffffffffffffffffffffffffffffffffffff16815260200191505060405180910390f35b34801561066a57600080fd5b50610673611b78565b6040518082815260200191505060405180910390f35b34801561069557600080fd5b5061069e611b7e565b6040518082815260200191505060405180910390f35b3480156106c057600080fd5b506106c9611b86565b005b3480156106d757600080fd5b50610704600480360360208110156106ee57600080fd5b8101908080359060200190929190505050611d0c565b604051808781526020018681526020018581526020018481526020018381526020018215158152602001965050505050505060405180910390f35b34801561074b57600080fd5b506107826004803603604081101561076257600080fd5b810190808035906020019092919080359060200190929190505050611d55565b6040518082815260200191505060405180910390f35b3480156107a457600080fd5b506107ad611f9b565b604051808273ffffffffffffffffffffffffffffffffffffffff16815260200191505060405180910390f35b3480156107e557600080fd5b506107ee611fc4565b6040518082815260200191505060405180910390f35b34801561081057600080fd5b50610865600480360360a081101561082757600080fd5b810190808035906020019092919080359060200190929190803590602001909291908035906020019092919080359060200190929190505050611fca565b6040518082815260200191505060405180910390f35b34801561088757600080fd5b506108b46004803603602081101561089e57600080fd5b81019080803590602001909291905050506122eb565b604051808673ffffffffffffffffffffffffffffffffffffffff1681526020018581526020018481526020018381526020018281526020019550505050505060405180910390f35b34801561090857600080fd5b50610911612341565b6040518080602001828103825283818151815260200191508051906020019060200280838360005b83811015610954578082015181840152602081019050610939565b505050509050019250505060405180910390f35b34801561097457600080fd5b506109ab6004803603604081101561098b57600080fd5b8101908080359060200190929190803590602001909291905050506124ad565b6040518082815260200191505060405180910390f35b3480156109cd57600080fd5b50610a10600480360360208110156109e457600080fd5b81019080803573ffffffffffffffffffffffffffffffffffffffff1690602001909291905050506126f3565b005b60025481565b610a206128fe565b73ffffffffffffffffffffffffffffffffffffffff1660008054906101000a900473ffffffffffffffffffffffffffffffffffffffff1673ffffffffffffffffffffffffffffffffffffffff1614610ae0576040517f08c379a00000000000000000000000000000000000000000000000000000000081526004018080602001828103825260208152602001807f4f776e61626c653a2063616c6c6572206973206e6f7420746865206f776e657281525060200191505060405180910390fd5b600360009054906101000a900460ff16610b62576040517f08c379a00000000000000000000000000000000000000000000000000000000081526004018080602001828103825260148152602001807f436f6e747261637420697320696e61637469766500000000000000000000000081525060200191505060405180910390fd5b806004600084815260200190815260200160002060050160006101000a81548160ff0219169083151502179055505050565b6060600360009054906101000a900460ff16610c18576040517f08c379a00000000000000000000000000000000000000000000000000000000081526004018080602001828103825260148152602001807f436f6e747261637420697320696e61637469766500000000000000000000000081525060200191505060405180910390fd5b816007541015610c285760075491505b60608267ffffffffffffffff81118015610c4157600080fd5b50604051908082528060200260200182016040528015610c705781602001602082028036833780820191505090505b50905060008060075490505b600081118015610c8b57508482105b15610d8357610cd06006600083815260200190815260200160002060000160009054906101000a900473ffffffffffffffffffffffffffffffffffffffff1684612906565b610d68576006600082815260200190815260200160002060000160009054906101000a900473ffffffffffffffffffffffffffffffffffffffff16838381518110610d1757fe5b602002602001019073ffffffffffffffffffffffffffffffffffffffff16908173ffffffffffffffffffffffffffffffffffffffff1681525050610d656001836129e190919063ffffffff16565b91505b610d7c600182612a6990919063ffffffff16565b9050610c7c565b508192505050919050565b6060600360009054906101000a900460ff16610e12576040517f08c379a00000000000000000000000000000000000000000000000000000000081526004018080602001828103825260148152602001807f436f6e747261637420697320696e61637469766500000000000000000000000081525060200191505060405180910390fd5b6000600860008473ffffffffffffffffffffffffffffffffffffffff1673ffffffffffffffffffffffffffffffffffffffff16815260200190815260200160002060000154905060608167ffffffffffffffff81118015610e7257600080fd5b50604051908082528060200260200182016040528015610ea15781602001602082028036833780820191505090505b509050600080600190505b6007548111610f8b578573ffffffffffffffffffffffffffffffffffffffff166006600083815260200190815260200160002060000160009054906101000a900473ffffffffffffffffffffffffffffffffffffffff1673ffffffffffffffffffffffffffffffffffffffff16148015610f2557508382105b15610f70576006600082815260200190815260200160002060010154838381518110610f4d57fe5b602002602001018181525050610f6d6001836129e190919063ffffffff16565b91505b610f846001826129e190919063ffffffff16565b9050610eac565b50819350505050919050565b610f9f6128fe565b73ffffffffffffffffffffffffffffffffffffffff1660008054906101000a900473ffffffffffffffffffffffffffffffffffffffff1673ffffffffffffffffffffffffffffffffffffffff161461105f576040517f08c379a00000000000000000000000000000000000000000000000000000000081526004018080602001828103825260208152602001807f4f776e61626c653a2063616c6c6572206973206e6f7420746865206f776e657281525060200191505060405180910390fd5b600360009054906101000a900460ff166110e1576040517f08c379a00000000000000000000000000000000000000000000000000000000081526004018080602001828103825260148152602001807f436f6e747261637420697320696e61637469766500000000000000000000000081525060200191505060405180910390fd5b6040516020018080602001828103825260008152602001602001915050604051602081830303815290604052805190602001206004600087815260200190815260200160002060000154604051602001808281526020019150506040516020818303038152906040528051906020012014156111c5576040517f08c379a00000000000000000000000000000000000000000000000000000000081526004018080602001828103825260168152602001807f50726f6475637420646f6573206e6f742065786973740000000000000000000081525060200191505060405180910390fd5b6040516020018080602001828103825260008152602001602001915050604051602081830303815290604052805190602001208460405160200180828152602001915050604051602081830303815290604052805190602001201415611293576040517f08c379a00000000000000000000000000000000000000000000000000000000081526004018080602001828103825260148152602001807f4e616d65206d75737420626520646566696e656400000000000000000000000081525060200191505060405180910390fd5b8360046000878152602001908152602001600020600001819055508260046000878152602001908152602001600020600101819055508160046000878152602001908152602001600020600201819055508060046000878152602001908152602001600020600301819055505050505050565b6060600360009054906101000a900460ff1661138a576040517f08c379a00000000000000000000000000000000000000000000000000000000081526004018080602001828103825260148152602001807f436f6e747261637420697320696e61637469766500000000000000000000000081525060200191505060405180910390fd5b6000600860008473ffffffffffffffffffffffffffffffffffffffff1673ffffffffffffffffffffffffffffffffffffffff16815260200190815260200160002060000154905060608167ffffffffffffffff811180156113ea57600080fd5b506040519080825280602002602001820160405280156114195781602001602082028036833780820191505090505b509050600080600190505b60075481116114ed578573ffffffffffffffffffffffffffffffffffffffff166006600083815260200190815260200160002060000160009054906101000a900473ffffffffffffffffffffffffffffffffffffffff1673ffffffffffffffffffffffffffffffffffffffff1614801561149d57508382105b156114d257808383815181106114af57fe5b6020026020010181815250506114cf6001836129e190919063ffffffff16565b91505b6114e66001826129e190919063ffffffff16565b9050611424565b50819350505050919050565b6115016128fe565b73ffffffffffffffffffffffffffffffffffffffff1660008054906101000a900473ffffffffffffffffffffffffffffffffffffffff1673ffffffffffffffffffffffffffffffffffffffff16146115c1576040517f08c379a00000000000000000000000000000000000000000000000000000000081526004018080602001828103825260208152602001807f4f776e61626c653a2063616c6c6572206973206e6f7420746865206f776e657281525060200191505060405180910390fd5b80600360006101000a81548160ff02191690831515021790555050565b60086020528060005260406000206000915090508060000154908060010154905082565b61160a6128fe565b73ffffffffffffffffffffffffffffffffffffffff1660008054906101000a900473ffffffffffffffffffffffffffffffffffffffff1673ffffffffffffffffffffffffffffffffffffffff16146116ca576040517f08c379a00000000000000000000000000000000000000000000000000000000081526004018080602001828103825260208152602001807f4f776e61626c653a2063616c6c6572206973206e6f7420746865206f776e657281525060200191505060405180910390fd5b60006116d4611f9b565b905060008173ffffffffffffffffffffffffffffffffffffffff168360405180600001905060006040518083038185875af1925050503d8060008114611736576040519150601f19603f3d011682016040523d82523d6000602084013e61173b565b606091505b50509050806117b2576040517f08c379a00000000000000000000000000000000000000000000000000000000081526004018080602001828103825260118152602001807f5472616e73666572206572726f72203a2800000000000000000000000000000081525060200191505060405180910390fd5b505050565b60015481565b816004600082815260200190815260200160002060050160009054906101000a900460ff16611854576040517f08c379a00000000000000000000000000000000000000000000000000000000081526004018080602001828103825260138152602001807f50726f6475637420697320696e6163746976650000000000000000000000000081525060200191505060405180910390fd5b600360009054906101000a900460ff166118d6576040517f08c379a00000000000000000000000000000000000000000000000000000000081526004018080602001828103825260148152602001807f436f6e747261637420697320696e61637469766500000000000000000000000081525060200191505060405180910390fd5b6000611901836004600087815260200190815260200160002060040154612a6990919063ffffffff16565b1015611975576040517f08c379a00000000000000000000000000000000000000000000000000000000081526004018080602001828103825260108152602001807f4e6f7420656e6f7567682073746f636b0000000000000000000000000000000081525060200191505060405180910390fd5b61199e600460008581526020019081526020016000206003015483612ab390919063ffffffff16565b34146119f5576040517f08c379a00000000000000000000000000000000000000000000000000000000081526004018080602001828103825260428152602001806130ba6042913960600191505060405180910390fd5b611a1e826004600086815260200190815260200160002060040154612a6990919063ffffffff16565b6004600085815260200190815260200160002060040181905550611a5a3384846004600088815260200190815260200160002060030154612b39565b611a6333612e3d565b6000611a6d611f9b565b905060008173ffffffffffffffffffffffffffffffffffffffff163460405180600001905060006040518083038185875af1925050503d8060008114611acf576040519150601f19603f3d011682016040523d82523d6000602084013e611ad4565b606091505b5050905080611b4b576040517f08c379a00000000000000000000000000000000000000000000000000000000081526004018080602001828103825260108152602001807f5472616e73666572206572726f7221210000000000000000000000000000000081525060200191505060405180910390fd5b5050505050565b600960009054906101000a900473ffffffffffffffffffffffffffffffffffffffff1681565b60075481565b600047905090565b611b8e6128fe565b73ffffffffffffffffffffffffffffffffffffffff1660008054906101000a900473ffffffffffffffffffffffffffffffffffffffff1673ffffffffffffffffffffffffffffffffffffffff1614611c4e576040517f08c379a00000000000000000000000000000000000000000000000000000000081526004018080602001828103825260208152602001807f4f776e61626c653a2063616c6c6572206973206e6f7420746865206f776e657281525060200191505060405180910390fd5b600073ffffffffffffffffffffffffffffffffffffffff1660008054906101000a900473ffffffffffffffffffffffffffffffffffffffff1673ffffffffffffffffffffffffffffffffffffffff167f8be0079c531659141344cd1fd0a4f28419497f9722a3daafe3b4186f6b6457e060405160405180910390a360008060006101000a81548173ffffffffffffffffffffffffffffffffffffffff021916908373ffffffffffffffffffffffffffffffffffffffff160217905550565b60046020528060005260406000206000915090508060000154908060010154908060020154908060030154908060040154908060050160009054906101000a900460ff16905086565b6000611d5f6128fe565b73ffffffffffffffffffffffffffffffffffffffff1660008054906101000a900473ffffffffffffffffffffffffffffffffffffffff1673ffffffffffffffffffffffffffffffffffffffff1614611e1f576040517f08c379a00000000000000000000000000000000000000000000000000000000081526004018080602001828103825260208152602001807f4f776e61626c653a2063616c6c6572206973206e6f7420746865206f776e657281525060200191505060405180910390fd5b600360009054906101000a900460ff16611ea1576040517f08c379a00000000000000000000000000000000000000000000000000000000081526004018080602001828103825260148152602001807f436f6e747261637420697320696e61637469766500000000000000000000000081525060200191505060405180910390fd5b826004600082815260200190815260200160002060050160009054906101000a900460ff16611f38576040517f08c379a00000000000000000000000000000000000000000000000000000000081526004018080602001828103825260138152602001807f50726f6475637420697320696e6163746976650000000000000000000000000081525060200191505060405180910390fd5b611f618360046000878152602001908152602001600020600401546129e190919063ffffffff16565b6004600086815260200190815260200160002060040181905550600460008581526020019081526020016000206004015491505092915050565b60008060009054906101000a900473ffffffffffffffffffffffffffffffffffffffff16905090565b60055481565b6000611fd46128fe565b73ffffffffffffffffffffffffffffffffffffffff1660008054906101000a900473ffffffffffffffffffffffffffffffffffffffff1673ffffffffffffffffffffffffffffffffffffffff1614612094576040517f08c379a00000000000000000000000000000000000000000000000000000000081526004018080602001828103825260208152602001807f4f776e61626c653a2063616c6c6572206973206e6f7420746865206f776e657281525060200191505060405180910390fd5b600360009054906101000a900460ff16612116576040517f08c379a00000000000000000000000000000000000000000000000000000000081526004018080602001828103825260148152602001807f436f6e747261637420697320696e61637469766500000000000000000000000081525060200191505060405180910390fd5b60405160200180806020018281038252600081526020016020019150506040516020818303038152906040528051906020012086604051602001808281526020019150506040516020818303038152906040528051906020012014156121e4576040517f08c379a00000000000000000000000000000000000000000000000000000000081526004018080602001828103825260148152602001807f4e616d65206d75737420626520646566696e656400000000000000000000000081525060200191505060405180910390fd5b6121fa60016005546129e190919063ffffffff16565b600581905550600060055490506040518060c001604052808881526020018781526020018681526020018481526020018581526020016001151581525060046000838152602001908152602001600020600082015181600001556020820151816001015560408201518160020155606082015181600301556080820151816004015560a08201518160050160006101000a81548160ff0219169083151502179055509050507f0d3f2c3295ad954301ada15bc0c0f049d13bb2892b10c1ba30ee70e332a587ef8188604051808381526020018281526020019250505060405180910390a18091505095945050505050565b60066020528060005260406000206000915090508060000160009054906101000a900473ffffffffffffffffffffffffffffffffffffffff16908060010154908060020154908060030154908060040154905085565b6060600360009054906101000a900460ff166123c5576040517f08c379a00000000000000000000000000000000000000000000000000000000081526004018080602001828103825260148152602001807f436f6e747261637420697320696e61637469766500000000000000000000000081525060200191505060405180910390fd5b606060055467ffffffffffffffff811180156123e057600080fd5b5060405190808252806020026020018201604052801561240f5781602001602082028036833780820191505090505b509050600080600190505b60055481116124a4576004600082815260200190815260200160002060050160009054906101000a900460ff168015612454575060055482105b15612489578083838151811061246657fe5b6020026020010181815250506124866001836129e190919063ffffffff16565b91505b61249d6001826129e190919063ffffffff16565b905061241a565b50819250505090565b60006124b76128fe565b73ffffffffffffffffffffffffffffffffffffffff1660008054906101000a900473ffffffffffffffffffffffffffffffffffffffff1673ffffffffffffffffffffffffffffffffffffffff1614612577576040517f08c379a00000000000000000000000000000000000000000000000000000000081526004018080602001828103825260208152602001807f4f776e61626c653a2063616c6c6572206973206e6f7420746865206f776e657281525060200191505060405180910390fd5b600360009054906101000a900460ff166125f9576040517f08c379a00000000000000000000000000000000000000000000000000000000081526004018080602001828103825260148152602001807f436f6e747261637420697320696e61637469766500000000000000000000000081525060200191505060405180910390fd5b826004600082815260200190815260200160002060050160009054906101000a900460ff16612690576040517f08c379a00000000000000000000000000000000000000000000000000000000081526004018080602001828103825260138152602001807f50726f6475637420697320696e6163746976650000000000000000000000000081525060200191505060405180910390fd5b6126b9836004600087815260200190815260200160002060040154612a6990919063ffffffff16565b6004600086815260200190815260200160002060040181905550600460008581526020019081526020016000206004015491505092915050565b6126fb6128fe565b73ffffffffffffffffffffffffffffffffffffffff1660008054906101000a900473ffffffffffffffffffffffffffffffffffffffff1673ffffffffffffffffffffffffffffffffffffffff16146127bb576040517f08c379a00000000000000000000000000000000000000000000000000000000081526004018080602001828103825260208152602001807f4f776e61626c653a2063616c6c6572206973206e6f7420746865206f776e657281525060200191505060405180910390fd5b600073ffffffffffffffffffffffffffffffffffffffff168173ffffffffffffffffffffffffffffffffffffffff161415612841576040517f08c379a00000000000000000000000000000000000000000000000000000000081526004018080602001828103825260268152602001806130736026913960400191505060405180910390fd5b8073ffffffffffffffffffffffffffffffffffffffff1660008054906101000a900473ffffffffffffffffffffffffffffffffffffffff1673ffffffffffffffffffffffffffffffffffffffff167f8be0079c531659141344cd1fd0a4f28419497f9722a3daafe3b4186f6b6457e060405160405180910390a3806000806101000a81548173ffffffffffffffffffffffffffffffffffffffff021916908373ffffffffffffffffffffffffffffffffffffffff16021790555050565b600033905090565b600080600090505b82518110156129d55782818151811061292357fe5b602002602001015173ffffffffffffffffffffffffffffffffffffffff168473ffffffffffffffffffffffffffffffffffffffff1614156129685760019150506129db565b600073ffffffffffffffffffffffffffffffffffffffff1683828151811061298c57fe5b602002602001015173ffffffffffffffffffffffffffffffffffffffff1614156129ba5760009150506129db565b6129ce6001826129e190919063ffffffff16565b905061290e565b50600090505b92915050565b600080828401905083811015612a5f576040517f08c379a000000000000000000000000000000000000000000000000000000000815260040180806020018281038252601b8152602001807f536166654d6174683a206164646974696f6e206f766572666c6f77000000000081525060200191505060405180910390fd5b8091505092915050565b6000612aab83836040518060400160405280601e81526020017f536166654d6174683a207375627472616374696f6e206f766572666c6f770000815250612fb2565b905092915050565b600080831415612ac65760009050612b33565b6000828402905082848281612ad757fe5b0414612b2e576040517f08c379a00000000000000000000000000000000000000000000000000000000081526004018080602001828103825260218152602001806130996021913960400191505060405180910390fd5b809150505b92915050565b600360009054906101000a900460ff16612bbb576040517f08c379a00000000000000000000000000000000000000000000000000000000081526004018080602001828103825260148152602001807f436f6e747261637420697320696e61637469766500000000000000000000000081525060200191505060405180910390fd5b6007600081548092919060010191905055506040518060a001604052808573ffffffffffffffffffffffffffffffffffffffff1681526020018481526020018381526020018281526020014281525060066000600754815260200190815260200160002060008201518160000160006101000a81548173ffffffffffffffffffffffffffffffffffffffff021916908373ffffffffffffffffffffffffffffffffffffffff16021790555060208201518160010155604082015181600201556060820151816003015560808201518160040155905050612ce76001600860008773ffffffffffffffffffffffffffffffffffffffff1673ffffffffffffffffffffffffffffffffffffffff168152602001908152602001600020600001546129e190919063ffffffff16565b600860008673ffffffffffffffffffffffffffffffffffffffff1673ffffffffffffffffffffffffffffffffffffffff16815260200190815260200160002060000181905550612d94612d438284612ab390919063ffffffff16565b600860008773ffffffffffffffffffffffffffffffffffffffff1673ffffffffffffffffffffffffffffffffffffffff168152602001908152602001600020600101546129e190919063ffffffff16565b600860008673ffffffffffffffffffffffffffffffffffffffff1673ffffffffffffffffffffffffffffffffffffffff168152602001908152602001600020600101819055507fa3ed4207b1480804a4590a74f4b9cc310dc0fc839af8d10e2141ca3b72fd9348848484604051808473ffffffffffffffffffffffffffffffffffffffff168152602001838152602001828152602001935050505060405180910390a150505050565b600360009054906101000a900460ff16612ebf576040517f08c379a00000000000000000000000000000000000000000000000000000000081526004018080602001828103825260148152602001807f436f6e747261637420697320696e61637469766500000000000000000000000081525060200191505060405180910390fd5b60086000600960009054906101000a900473ffffffffffffffffffffffffffffffffffffffff1673ffffffffffffffffffffffffffffffffffffffff1673ffffffffffffffffffffffffffffffffffffffff16815260200190815260200160002060010154600860008373ffffffffffffffffffffffffffffffffffffffff1673ffffffffffffffffffffffffffffffffffffffff168152602001908152602001600020600101541115612faf5780600960006101000a81548173ffffffffffffffffffffffffffffffffffffffff021916908373ffffffffffffffffffffffffffffffffffffffff1602179055505b50565b600083831115829061305f576040517f08c379a00000000000000000000000000000000000000000000000000000000081526004018080602001828103825283818151815260200191508051906020019080838360005b83811015613024578082015181840152602081019050613009565b50505050905090810190601f1680156130515780820380516001836020036101000a031916815260200191505b509250505060405180910390fd5b506000838503905080915050939250505056fe4f776e61626c653a206e6577206f776e657220697320746865207a65726f2061646472657373536166654d6174683a206d756c7469706c69636174696f6e206f766572666c6f77596f75206d7573742073656e642074686520657861637420616d6f756e74206f66206574686572206e656564656420746f2062757920746869732070726f64756374a264697066735822122018b969a779401020c4e816459e5b425047026a029cef662e3c732b0eba35153264736f6c63430007050033",
  "immutableReferences": {},
  "source": "// SPDX-License-Identifier: GPL-3.0\r\npragma solidity 0.7.5;\r\n\r\nimport \"@openzeppelin/contracts/access/Ownable.sol\";\r\nimport \"@openzeppelin/contracts/math/SafeMath.sol\";\r\n\r\ncontract VendingMachine is Ownable\r\n{\r\n\tusing SafeMath for uint256;\r\n\tuint256 public birthdate;\r\n\tbytes32 public name;\r\n\tbool private active;\r\n\r\n\tstruct Product {\r\n\t\tbytes32 name;\r\n\t\tbytes32 description;\r\n\t\tbytes32 image;\r\n\t\tuint256 price;\r\n\t\tuint256 quantity;\r\n\t\tbool active;\r\n\t}\r\n\r\n\tstruct Sale {\r\n\t\taddress customer;\r\n\t\tuint256 productId;\r\n\t\tuint256 quantity;\r\n\t\tuint256 price;\r\n\t\tuint256 date;\r\n\t}\r\n\r\n\tstruct CustomerSalesHistory {\r\n\t\tuint256 totalSales;\r\n\t\tuint256 totalRevenue;\r\n\t}\r\n\r\n\tmapping (uint256 => Product) public products;\r\n\tuint256 public totalProducts;\r\n\tmapping (uint256 => Sale) public sales;\r\n\tuint256 public totalSales;\r\n\tmapping (address => CustomerSalesHistory) public customersSalesHistory;\r\n\taddress public topClient;\r\n\r\n\t/*\r\n\t*\tProduct must be active\r\n\t*/\r\n\tmodifier isActiveProduct(uint256 _productId) {\r\n\t\trequire(products[_productId].active, 'Product is inactive');\r\n\t\t_;\r\n\t}\r\n\r\n\t/*\r\n\t*\tContract must be active in order to work :)\r\n\t*/\r\n\tmodifier contractMustBeActive() {\r\n\t\trequire(active, 'Contract is inactive');\r\n\t\t_;\r\n\t}\r\n\r\n\tevent Received(address _customer, uint256 _quantity);\r\n\tevent NewProduct(uint256 _productId, bytes32 _name);\r\n\tevent NewSale(address _customer, uint256 _productId, uint256 _quantity);\r\n\t\r\n\t/*\r\n\t*\tSet vending machine basic data\r\n\t*/\r\n\tconstructor(bytes32 _name) {\r\n\t\tbirthdate = block.timestamp;\r\n\t\tname = _name;\r\n\t\tactive = true;\r\n\t}\r\n\r\n\t/*\r\n\t* Activate/Deactivate contract functionality\r\n\t*/\r\n\tfunction activateDeactivateContract(bool _active) external onlyOwner {\r\n\t\tactive = _active;\r\n\t}\r\n\r\n\r\n\t/*\r\n\t* Send any remaining funds in contract to owner\r\n\t*/\r\n\tfunction transferRemainingFunds(uint256 _weiUnits) external payable onlyOwner {\r\n\t\taddress payable beneficiary = payable(owner());\r\n\t\t(bool success, ) = beneficiary.call{value: _weiUnits}('');\r\n\t\trequire(success, 'Transfer error :(');\r\n\t}\r\n\r\n\t/*\r\n\t* Get contract's balance\r\n\t*/\r\n\tfunction getContractBalance() external view returns(uint256) {\r\n\t\treturn address(this).balance;\r\n\t}\r\n\r\n\t/*\r\n\t* Fallback function\r\n\t*/\r\n\treceive() external payable contractMustBeActive {\r\n\t\temit Received(msg.sender, msg.value);\r\n\t}\r\n\r\n\t/*\r\n\t* Return list of active products\r\n\t*/\r\n\tfunction getActiveProducts() \r\n\t\texternal view contractMustBeActive\r\n\t\treturns(uint256[] memory)\r\n\t{\r\n\t\tuint256[] memory prods = new uint256[](totalProducts);\r\n\t\tuint256 counter = 0;\r\n\r\n\t\tfor (uint256 i = 1; i <= totalProducts; i = i.add(1)) {\r\n\t\t\tif (products[i].active && counter < totalProducts) {\r\n\t\t\t\tprods[counter] = i;\r\n\t\t\t\tcounter = counter.add(1);\r\n\t\t\t}\r\n\t\t}\r\n\r\n\t\treturn prods;\r\n\t}\r\n\r\n\t/*\r\n\t*\tAdd new product to contract's products list\r\n\t*/\r\n\tfunction addProduct(\r\n\t\tbytes32 _name,\r\n\t\tbytes32 _description,\r\n\t\tbytes32 _image,\r\n\t\tuint256 _quantity,\r\n\t\tuint256 _price\r\n\t)\r\n\t\texternal \r\n\t\tonlyOwner contractMustBeActive\r\n\t\treturns (uint256)\r\n\t{\r\n\t\trequire(\r\n\t\t\tkeccak256(abi.encode(_name)) != keccak256(abi.encode('')),\r\n\t\t\t'Name must be defined'\r\n\t\t);\r\n\t\t// Increase total products\r\n\t\ttotalProducts = totalProducts.add(1);\r\n\r\n\t\t// First id must be one :)\r\n\t\tuint256 productId = totalProducts;\r\n\t\tproducts[productId] = Product(\r\n\t\t\t_name,\r\n\t\t\t_description,\r\n\t\t\t_image,\r\n\t\t\t_price,\r\n\t\t\t_quantity,\r\n\t\t\ttrue\r\n\t\t);\r\n\t\temit NewProduct(productId, _name);\r\n\t\treturn productId;\r\n\t}\r\n\r\n\t/*\r\n\t*\tUpdate product info\r\n\t*/\r\n\tfunction updateProduct(\r\n\t\tuint256 _productId,\r\n\t\tbytes32 _name,\r\n\t\tbytes32 _description,\r\n\t\tbytes32 _image,\r\n\t\tuint256 _price\r\n\t)\r\n\t\texternal\r\n\t\tonlyOwner contractMustBeActive\r\n\t{\r\n\t\trequire(\r\n\t\t\tkeccak256(abi.encode(products[_productId].name)) != keccak256(abi.encode('')),\r\n\t\t\t'Product does not exist'\r\n\t\t);\r\n\t\trequire(\r\n\t\t\tkeccak256(abi.encode(_name)) != keccak256(abi.encode('')),\r\n\t\t\t'Name must be defined'\r\n\t\t);\r\n\t\tproducts[_productId].name = _name;\r\n\t\tproducts[_productId].description = _description;\r\n\t\tproducts[_productId].image = _image;\r\n\t\tproducts[_productId].price = _price;\r\n\t}\r\n\r\n\t/*\r\n\t*\tActivate/deactive product\r\n\t*\tOnly activated products are selled\r\n\t*/\r\n\tfunction activateDeactivateProduct(\r\n\t\tuint256 _productId,\r\n\t\tbool _active\r\n\t)\r\n\t\texternal\r\n\t\tonlyOwner contractMustBeActive\r\n\t{\r\n\t\tproducts[_productId].active = _active;\r\n\t}\r\n\r\n\t/*\r\n\t*\tAdd stock to a product\r\n\t*/\r\n\tfunction addStock(\r\n\t\tuint256 _productId,\r\n\t\tuint256 _quantity\r\n\t) \r\n\t\texternal \r\n\t\tonlyOwner contractMustBeActive\r\n\t\tisActiveProduct(_productId)\r\n\t\treturns (uint256)\r\n\t{\r\n\t\tproducts[_productId].quantity = products[_productId].quantity.add(\r\n\t\t\t_quantity\r\n\t\t);\r\n\r\n\t\treturn products[_productId].quantity;\r\n\t}\r\n\r\n\t/*\r\n\t*\tRemove stock from a product\r\n\t*/\r\n\tfunction removeStock(\r\n\t\tuint256 _productId,\r\n\t\tuint256 _quantity\r\n\t) \r\n\t\texternal \r\n\t\tonlyOwner contractMustBeActive\r\n\t\tisActiveProduct(_productId)\r\n\t\treturns (uint256)\r\n\t{\r\n\t\tproducts[_productId].quantity = products[_productId].quantity.sub(\r\n\t\t\t_quantity\r\n\t\t);\r\n\r\n\t\treturn products[_productId].quantity;\r\n\t}\r\n\r\n\t/*\r\n\t*\tSave sales info history in contract's storage\r\n\t*/\r\n\tfunction _addSale(\r\n\t\taddress _customer,\r\n\t\tuint256 _productId,\r\n\t\tuint256 _quantity,\r\n\t\tuint256 _price\r\n\t) \r\n\t\tcontractMustBeActive\r\n\t\tprivate \r\n\t{\r\n\r\n\t\ttotalSales++;\r\n\t\tsales[totalSales] = Sale(_customer, _productId, _quantity, _price, block.timestamp);\r\n\t\tcustomersSalesHistory[_customer].totalSales = customersSalesHistory[_customer].totalSales.add(1);\r\n\t\tcustomersSalesHistory[_customer].totalRevenue = customersSalesHistory[_customer].totalRevenue.add(\r\n\t\t\t_quantity.mul(_price)\r\n\t\t);\r\n\t\t\r\n\t\temit NewSale(_customer, _productId, _quantity);\r\n\t}\r\n\r\n\t/*\r\n\t*\tSet customer as new top client if he's total revenue\r\n\t* is greater than current top client\r\n\t*/\r\n\tfunction _setNewTopClient(address _customer) \r\n\t\tprivate contractMustBeActive\r\n\t{\r\n\t\tif (customersSalesHistory[_customer].totalRevenue \r\n\t\t\t  > customersSalesHistory[topClient].totalRevenue) {\r\n\t\t\ttopClient = _customer;\r\n\t\t}\r\n\t}\r\n\r\n\t/*\r\n\t*\tBuy a product from machine\r\n\t*/\r\n\tfunction buyProduct(uint256 _productId, uint256 _quantity) \r\n\t\texternal\r\n\t\tpayable\r\n\t\tisActiveProduct(_productId) contractMustBeActive\r\n\t{\r\n\t\trequire(products[_productId].quantity.sub(_quantity) >= 0, 'Not enough stock');\r\n\t\trequire(\r\n\t\t\tmsg.value == (_quantity.mul(products[_productId].price)),\r\n\t\t\t\"You must send the exact amount of ether needed to buy this product\"\r\n\t\t);\r\n\t\t// Remove _quantity from inventory\r\n\t\tproducts[_productId].quantity = products[_productId].quantity.sub(\r\n\t\t\t_quantity\r\n\t\t);\r\n\t\t// Save the sale info\r\n\t\t_addSale(msg.sender, _productId, _quantity, products[_productId].price);\r\n\t\t// Set new top client \r\n\t\t_setNewTopClient(msg.sender);\r\n\t\t// Send payment to owner\r\n\t\taddress payable beneficiary = payable(owner());\r\n\t\t(bool success, ) = beneficiary.call{value: msg.value}(\"\");\r\n\t\trequire(success, \"Transfer error!!\");\r\n\r\n\t}\r\n\r\n\t\r\n\t/*\r\n\t*\tGet the list of the last _max customers\r\n\t*/\r\n\tfunction getLastCustomers(uint256 _max) \r\n\t\texternal view \r\n\t\tcontractMustBeActive\r\n\t\treturns(address[] memory)\r\n\t{\r\n\t\tif (totalSales < _max) {\r\n\t\t\t_max = totalSales;\r\n\t\t}\r\n\t\taddress[] memory lastCustomers = new address[](_max);\r\n\t\tuint256 counter = 0;\r\n\r\n\t\tfor (uint256 i = totalSales; i > 0 && counter < _max; i = i.sub(1)) {\r\n\t\t\tif (!_inArray(sales[i].customer, lastCustomers)) {\r\n\t\t\t\tlastCustomers[counter] = sales[i].customer;\r\n\t\t\t\tcounter = counter.add(1);\r\n\t\t\t}\r\n\t\t}\r\n\r\n\t\treturn lastCustomers;\r\n\t}\r\n\r\n\t/*\r\n\t*\tSearch for needle in haystack\r\n\t*/\r\n\tfunction _inArray(address needle, address[] memory haystack) \r\n\t\t\tprivate pure \r\n\t\t\treturns(bool)\r\n\t{\r\n\t\t\tfor (uint256 i = 0; i < haystack.length; i = i.add(1)) {\r\n\t\t\t\tif (needle == haystack[i]) {\r\n\t\t\t\t\treturn true;\r\n\t\t\t\t} else if (haystack[i] == address(0)) {\r\n\t\t\t\t\treturn false;\r\n\t\t\t\t}\r\n\t\t\t}\r\n\t\t\treturn false;\r\n\t}\r\n\r\n\t/*\r\n\t*\tGet client's sales history\r\n\t*/\r\n\tfunction getSalesHistory(address _customer) \r\n\t\texternal view \r\n\t\tcontractMustBeActive\r\n\t\treturns(uint256[] memory) \r\n\t{\r\n\t\tuint256 totalClientSales = customersSalesHistory[_customer].totalSales;\r\n\t\tuint256[] memory clientSales = new uint[](totalClientSales);\r\n\t\tuint256 counter = 0;\r\n\r\n\t\tfor (uint256 i = 1; i <= totalSales; i = i.add(1)) {\r\n\t\t\tif (sales[i].customer == _customer && counter < totalClientSales) {\r\n\t\t\t\tclientSales[counter] = i;\r\n\t\t\t\tcounter = counter.add(1);\r\n\t\t\t}\r\n\t\t}\r\n\r\n\t\treturn clientSales;\r\n\t}\r\n\r\n\t/*\r\n\t*\tGet products bought by the customer\r\n\t*/\r\n\tfunction getSalesHistoryByProducts(address _customer) \r\n\t\texternal view \r\n\t\tcontractMustBeActive\r\n\t\treturns(uint256[] memory) \r\n\t{\r\n\t\tuint256 totalClientSales = customersSalesHistory[_customer].totalSales;\r\n\t\tuint256[] memory clientProducts = new uint[](totalClientSales);\r\n\t\tuint256 counter = 0;\r\n\r\n\t\tfor (uint256 i = 1; i <= totalSales; i = i.add(1)) {\r\n\t\t\tif (sales[i].customer == _customer && counter < totalClientSales) {\r\n\t\t\t\tclientProducts[counter] = sales[i].productId;\r\n\t\t\t\tcounter = counter.add(1);\r\n\t\t\t}\r\n\t\t}\r\n\r\n\t\treturn clientProducts;\r\n\t}\r\n\r\n}",
  "sourcePath": "c:/xampp/htdocs/vending-machine/contracts/VendingMachine.sol",
  "compiler": {
    "name": "solc",
    "version": "0.7.5+commit.eb77ed08.Emscripten.clang"
  },
  "schemaVersion": "3.3.1",
  "updatedAt": "2020-12-06T08:32:19.295Z",
  "networkType": "ethereum",
  "devdoc": {
    "kind": "dev",
    "methods": {
      "owner()": {
        "details": "Returns the address of the current owner."
      },
      "renounceOwnership()": {
        "details": "Leaves the contract without owner. It will not be possible to call `onlyOwner` functions anymore. Can only be called by the current owner. NOTE: Renouncing ownership will leave the contract without an owner, thereby removing any functionality that is only available to the owner."
      },
      "transferOwnership(address)": {
        "details": "Transfers ownership of the contract to a new account (`newOwner`). Can only be called by the current owner."
      }
    },
    "version": 1
  },
  "userdoc": {
    "kind": "user",
    "methods": {},
    "version": 1
  }
}